{
  "_format": "hh-sol-artifact-1",
  "contractName": "BlockBet",
  "sourceName": "contracts/BlockBet.sol",
  "abi": [
    {
      "inputs": [],
      "stateMutability": "nonpayable",
      "type": "constructor"
    },
    {
      "anonymous": false,
      "inputs": [],
      "name": "BetCreated",
      "type": "event"
    },
    {
      "inputs": [],
      "name": "arraySize",
      "outputs": [
        {
          "internalType": "uint256",
          "name": "",
          "type": "uint256"
        }
      ],
      "stateMutability": "view",
      "type": "function"
    },
    {
      "inputs": [],
      "name": "betInd",
      "outputs": [
        {
          "internalType": "uint256",
          "name": "",
          "type": "uint256"
        }
      ],
      "stateMutability": "view",
      "type": "function"
    },
    {
      "inputs": [
        {
          "internalType": "uint256",
          "name": "betID",
          "type": "uint256"
        },
        {
          "internalType": "address",
          "name": "sender",
          "type": "address"
        }
      ],
      "name": "checkPermissions",
      "outputs": [],
      "stateMutability": "view",
      "type": "function"
    },
    {
      "inputs": [
        {
          "internalType": "uint256",
          "name": "_guess",
          "type": "uint256"
        },
        {
          "internalType": "address",
          "name": "_oracle",
          "type": "address"
        },
        {
          "internalType": "string",
          "name": "_betDescription",
          "type": "string"
        },
        {
          "internalType": "address",
          "name": "_takerAddr",
          "type": "address"
        },
        {
          "internalType": "uint256",
          "name": "takerBetAmount",
          "type": "uint256"
        }
      ],
      "name": "createBet",
      "outputs": [],
      "stateMutability": "payable",
      "type": "function"
    },
    {
      "inputs": [
        {
          "internalType": "uint256",
          "name": "betID",
          "type": "uint256"
        }
      ],
      "name": "denyBet",
      "outputs": [],
      "stateMutability": "payable",
      "type": "function"
    },
    {
      "inputs": [
        {
          "internalType": "uint256",
          "name": "",
          "type": "uint256"
        }
      ],
      "name": "games",
      "outputs": [
        {
          "internalType": "uint256",
          "name": "outcome",
          "type": "uint256"
        },
        {
          "internalType": "uint256",
          "name": "status",
          "type": "uint256"
        },
        {
          "components": [
            {
              "internalType": "uint256",
              "name": "guess",
              "type": "uint256"
            },
            {
              "internalType": "address payable",
              "name": "addr",
              "type": "address"
            },
            {
              "internalType": "uint256",
              "name": "status",
              "type": "uint256"
            },
            {
              "internalType": "uint256",
              "name": "betAmount",
              "type": "uint256"
            }
          ],
          "internalType": "struct BlockBet.BetterBet",
          "name": "originator",
          "type": "tuple"
        },
        {
          "components": [
            {
              "internalType": "uint256",
              "name": "guess",
              "type": "uint256"
            },
            {
              "internalType": "address payable",
              "name": "addr",
              "type": "address"
            },
            {
              "internalType": "uint256",
              "name": "status",
              "type": "uint256"
            },
            {
              "internalType": "uint256",
              "name": "betAmount",
              "type": "uint256"
            }
          ],
          "internalType": "struct BlockBet.BetterBet",
          "name": "taker",
          "type": "tuple"
        },
        {
          "internalType": "address",
          "name": "oracle",
          "type": "address"
        },
        {
          "internalType": "string",
          "name": "betDescription",
          "type": "string"
        }
      ],
      "stateMutability": "view",
      "type": "function"
    },
    {
      "inputs": [],
      "name": "getBalance",
      "outputs": [
        {
          "internalType": "uint256",
          "name": "",
          "type": "uint256"
        }
      ],
      "stateMutability": "view",
      "type": "function"
    },
    {
      "inputs": [
        {
          "internalType": "uint256",
          "name": "betID",
          "type": "uint256"
        }
      ],
      "name": "getBetDescription",
      "outputs": [
        {
          "internalType": "string",
          "name": "",
          "type": "string"
        }
      ],
      "stateMutability": "view",
      "type": "function"
    },
    {
      "inputs": [],
      "name": "getBetInd",
      "outputs": [
        {
          "internalType": "uint256",
          "name": "",
          "type": "uint256"
        }
      ],
      "stateMutability": "view",
      "type": "function"
    },
    {
      "inputs": [
        {
          "internalType": "uint256",
          "name": "betID",
          "type": "uint256"
        }
      ],
      "name": "getBetOutcome",
      "outputs": [
        {
          "internalType": "string",
          "name": "description",
          "type": "string"
        },
        {
          "internalType": "string",
          "name": "outcome",
          "type": "string"
        },
        {
          "internalType": "string",
          "name": "originatorKey",
          "type": "string"
        },
        {
          "internalType": "uint256",
          "name": "originatorStatus",
          "type": "uint256"
        },
        {
          "internalType": "string",
          "name": "takerKey",
          "type": "string"
        },
        {
          "internalType": "uint256",
          "name": "takerStatus",
          "type": "uint256"
        }
      ],
      "stateMutability": "view",
      "type": "function"
    },
    {
      "inputs": [
        {
          "internalType": "uint256",
          "name": "betID",
          "type": "uint256"
        }
      ],
      "name": "getGameStatus",
      "outputs": [
        {
          "internalType": "uint256",
          "name": "",
          "type": "uint256"
        }
      ],
      "stateMutability": "view",
      "type": "function"
    },
    {
      "inputs": [
        {
          "internalType": "uint256",
          "name": "betID",
          "type": "uint256"
        }
      ],
      "name": "getOracleAddress",
      "outputs": [
        {
          "internalType": "address",
          "name": "",
          "type": "address"
        }
      ],
      "stateMutability": "view",
      "type": "function"
    },
    {
      "inputs": [
        {
          "internalType": "uint256",
          "name": "betID",
          "type": "uint256"
        }
      ],
      "name": "getOriginatorAddress",
      "outputs": [
        {
          "internalType": "address",
          "name": "",
          "type": "address"
        }
      ],
      "stateMutability": "view",
      "type": "function"
    },
    {
      "inputs": [
        {
          "internalType": "uint256",
          "name": "betID",
          "type": "uint256"
        }
      ],
      "name": "getOriginatorBetAmount",
      "outputs": [
        {
          "internalType": "uint256",
          "name": "",
          "type": "uint256"
        }
      ],
      "stateMutability": "view",
      "type": "function"
    },
    {
      "inputs": [
        {
          "internalType": "uint256",
          "name": "betID",
          "type": "uint256"
        }
      ],
      "name": "getOriginatorGuess",
      "outputs": [
        {
          "internalType": "uint256",
          "name": "",
          "type": "uint256"
        }
      ],
      "stateMutability": "view",
      "type": "function"
    },
    {
      "inputs": [
        {
          "internalType": "uint256",
          "name": "betID",
          "type": "uint256"
        }
      ],
      "name": "getOriginatorStatus",
      "outputs": [
        {
          "internalType": "uint256",
          "name": "",
          "type": "uint256"
        }
      ],
      "stateMutability": "view",
      "type": "function"
    },
    {
      "inputs": [
        {
          "internalType": "uint256",
          "name": "betID",
          "type": "uint256"
        }
      ],
      "name": "getOutcome",
      "outputs": [
        {
          "internalType": "uint256",
          "name": "",
          "type": "uint256"
        }
      ],
      "stateMutability": "view",
      "type": "function"
    },
    {
      "inputs": [
        {
          "internalType": "uint256",
          "name": "betID",
          "type": "uint256"
        }
      ],
      "name": "getTakerAddress",
      "outputs": [
        {
          "internalType": "address",
          "name": "",
          "type": "address"
        }
      ],
      "stateMutability": "view",
      "type": "function"
    },
    {
      "inputs": [
        {
          "internalType": "uint256",
          "name": "betID",
          "type": "uint256"
        }
      ],
      "name": "getTakerBetAmount",
      "outputs": [
        {
          "internalType": "uint256",
          "name": "",
          "type": "uint256"
        }
      ],
      "stateMutability": "view",
      "type": "function"
    },
    {
      "inputs": [
        {
          "internalType": "uint256",
          "name": "betID",
          "type": "uint256"
        }
      ],
      "name": "getTakerGuess",
      "outputs": [
        {
          "internalType": "uint256",
          "name": "",
          "type": "uint256"
        }
      ],
      "stateMutability": "view",
      "type": "function"
    },
    {
      "inputs": [
        {
          "internalType": "uint256",
          "name": "betID",
          "type": "uint256"
        }
      ],
      "name": "getTakerStatus",
      "outputs": [
        {
          "internalType": "uint256",
          "name": "",
          "type": "uint256"
        }
      ],
      "stateMutability": "view",
      "type": "function"
    },
    {
      "inputs": [
        {
          "internalType": "uint256",
          "name": "betID",
          "type": "uint256"
        }
      ],
      "name": "nullBet",
      "outputs": [],
      "stateMutability": "payable",
      "type": "function"
    },
    {
      "inputs": [],
      "name": "owner",
      "outputs": [
        {
          "internalType": "address",
          "name": "",
          "type": "address"
        }
      ],
      "stateMutability": "view",
      "type": "function"
    },
    {
      "inputs": [
        {
          "internalType": "uint256",
          "name": "betID",
          "type": "uint256"
        },
        {
          "internalType": "uint256",
          "name": "_outcome",
          "type": "uint256"
        }
      ],
      "name": "payout",
      "outputs": [],
      "stateMutability": "payable",
      "type": "function"
    },
    {
      "inputs": [
        {
          "internalType": "uint256",
          "name": "betID",
          "type": "uint256"
        }
      ],
      "name": "takeBet",
      "outputs": [],
      "stateMutability": "payable",
      "type": "function"
    }
  ],
  "bytecode": "0x6080604052600060015534801561001557600080fd5b50336000806101000a81548173ffffffffffffffffffffffffffffffffffffffff021916908373ffffffffffffffffffffffffffffffffffffffff16021790555061375c806100656000396000f3fe6080604052600436106101665760003560e01c806371c57ca2116100d1578063c511a0741161008a578063e1feadfd11610064578063e1feadfd14610596578063e59286d8146105d3578063ef4be800146105fe578063f373ae311461063b57610166565b8063c511a07414610512578063cd5793351461052e578063e0f6ff431461056b57610166565b806371c57ca2146103d757806381d335fe146104145780638a8263e2146104515780638da5cb5b1461046d5780639217c43814610498578063aa8e7326146104d557610166565b80633145b496116101235780633145b496146102b0578063480729e0146102ed57806348f1b5b9146103165780634af8e1a4146103535780635aa6cf971461037e5780636d4f45421461039a57610166565b80630f1bf4541461016b578063117a5b90146101a857806312065fe0146101ea57806318aea0c8146102155780631a421ad214610257578063294ba4b414610273575b600080fd5b34801561017757600080fd5b50610192600480360381019061018d919061280f565b610657565b60405161019f919061284b565b60405180910390f35b3480156101b457600080fd5b506101cf60048036038101906101ca919061280f565b61067e565b6040516101e1969594939291906129bc565b60405180910390f35b3480156101f657600080fd5b506101ff610866565b60405161020c919061284b565b60405180910390f35b34801561022157600080fd5b5061023c6004803603810190610237919061280f565b610873565b60405161024e96959493929190612a27565b60405180910390f35b610271600480360381019061026c919061280f565b610b96565b005b34801561027f57600080fd5b5061029a6004803603810190610295919061280f565b610d51565b6040516102a79190612aa4565b60405180910390f35b3480156102bc57600080fd5b506102d760048036038101906102d2919061280f565b610e0a565b6040516102e49190612ac6565b60405180910390f35b3480156102f957600080fd5b50610314600480360381019061030f9190612b0d565b610e54565b005b34801561032257600080fd5b5061033d6004803603810190610338919061280f565b610fef565b60405161034a919061284b565b60405180910390f35b34801561035f57600080fd5b50610368611023565b604051610375919061284b565b60405180910390f35b61039860048036038101906103939190612b4d565b61102d565b005b3480156103a657600080fd5b506103c160048036038101906103bc919061280f565b6118e8565b6040516103ce919061284b565b60405180910390f35b3480156103e357600080fd5b506103fe60048036038101906103f9919061280f565b61191c565b60405161040b919061284b565b60405180910390f35b34801561042057600080fd5b5061043b6004803603810190610436919061280f565b611950565b604051610448919061284b565b60405180910390f35b61046b60048036038101906104669190612cc2565b611984565b005b34801561047957600080fd5b50610482611ea9565b60405161048f9190612ac6565b60405180910390f35b3480156104a457600080fd5b506104bf60048036038101906104ba919061280f565b611ecd565b6040516104cc9190612ac6565b60405180910390f35b3480156104e157600080fd5b506104fc60048036038101906104f7919061280f565b611f14565b6040516105099190612ac6565b60405180910390f35b61052c6004803603810190610527919061280f565b611f5e565b005b34801561053a57600080fd5b506105556004803603810190610550919061280f565b6121ad565b604051610562919061284b565b60405180910390f35b34801561057757600080fd5b506105806121de565b60405161058d919061284b565b60405180910390f35b3480156105a257600080fd5b506105bd60048036038101906105b8919061280f565b6121e5565b6040516105ca919061284b565b60405180910390f35b3480156105df57600080fd5b506105e8612219565b6040516105f5919061284b565b60405180910390f35b34801561060a57600080fd5b506106256004803603810190610620919061280f565b61221f565b604051610632919061284b565b60405180910390f35b6106556004803603810190610650919061280f565b612253565b005b600060028262010000811061066f5761066e612d59565b5b600c0201600101549050919050565b60028162010000811061069057600080fd5b600c020160009150905080600001549080600101549080600201604051806080016040529081600082015481526020016001820160009054906101000a900473ffffffffffffffffffffffffffffffffffffffff1673ffffffffffffffffffffffffffffffffffffffff1673ffffffffffffffffffffffffffffffffffffffff168152602001600282015481526020016003820154815250509080600601604051806080016040529081600082015481526020016001820160009054906101000a900473ffffffffffffffffffffffffffffffffffffffff1673ffffffffffffffffffffffffffffffffffffffff1673ffffffffffffffffffffffffffffffffffffffff168152602001600282015481526020016003820154815250509080600a0160009054906101000a900473ffffffffffffffffffffffffffffffffffffffff169080600b0180546107e390612db7565b80601f016020809104026020016040519081016040528092919081815260200182805461080f90612db7565b801561085c5780601f106108315761010080835404028352916020019161085c565b820191906000526020600020905b81548152906001019060200180831161083f57829003601f168201915b5050505050905086565b6000804790508091505090565b6060806060600060606000600160028862010000811061089657610895612d59565b5b600c0201600201600201541480156108cd5750600280886201000081106108c0576108bf612d59565b5b600c020160060160020154145b1561090f576040518060400160405280601e81526020017f426574206f726967696e61746f722068617320776f6e2074686520626574000081525095506109da565b6002808862010000811061092657610925612d59565b5b600c02016002016002015414801561095e5750600160028862010000811061095157610950612d59565b5b600c020160060160020154145b156109a0576040518060400160405280601981526020017f4265742074616b65722068617320776f6e20746865206265740000000000000081525095506109d9565b6040518060400160405280601381526020017f556e6b6e6f776e20426574204f7574636f6d650000000000000000000000000081525095505b5b60016002886201000081106109f2576109f1612d59565b5b600c02016000015403610a3c576040518060400160405280600481526020017f54727565000000000000000000000000000000000000000000000000000000008152509450610ad7565b60028088620100008110610a5357610a52612d59565b5b600c02016000015403610a9d576040518060400160405280600581526020017f46616c73650000000000000000000000000000000000000000000000000000008152509450610ad6565b6040518060400160405280601481526020017f556e6b6e6f776e2047616d65204f7574636f6d6500000000000000000000000081525094505b5b6040518060400160405280600a81526020017f6f726967696e61746f72000000000000000000000000000000000000000000008152509350600287620100008110610b2557610b24612d59565b5b600c02016002016002015492506040518060400160405280600581526020017f74616b65720000000000000000000000000000000000000000000000000000008152509150600287620100008110610b8057610b7f612d59565b5b600c020160060160020154905091939550919395565b600281620100008110610bac57610bab612d59565b5b600c020160060160010160009054906101000a900473ffffffffffffffffffffffffffffffffffffffff1673ffffffffffffffffffffffffffffffffffffffff163373ffffffffffffffffffffffffffffffffffffffff1614610c44576040517f08c379a0000000000000000000000000000000000000000000000000000000008152600401610c3b90612e34565b60405180910390fd5b610c846040518060400160405280601781526020017f44656e79696e67204265745b25735d2066726f6d2025730000000000000000008152508233612592565b6000600282620100008110610c9c57610c9b612d59565b5b600c020160010181905550600281620100008110610cbd57610cbc612d59565b5b600c020160020160010160009054906101000a900473ffffffffffffffffffffffffffffffffffffffff1673ffffffffffffffffffffffffffffffffffffffff166108fc600283620100008110610d1757610d16612d59565b5b600c0201600201600301549081150290604051600060405180830381858888f19350505050158015610d4d573d6000803e3d6000fd5b5050565b6060610d5d8233610e54565b600282620100008110610d7357610d72612d59565b5b600c0201600b018054610d8590612db7565b80601f0160208091040260200160405190810160405280929190818152602001828054610db190612db7565b8015610dfe5780601f10610dd357610100808354040283529160200191610dfe565b820191906000526020600020905b815481529060010190602001808311610de157829003601f168201915b50505050509050919050565b6000600282620100008110610e2257610e21612d59565b5b600c020160060160010160009054906101000a900473ffffffffffffffffffffffffffffffffffffffff169050919050565b600282620100008110610e6a57610e69612d59565b5b600c020160020160010160009054906101000a900473ffffffffffffffffffffffffffffffffffffffff1673ffffffffffffffffffffffffffffffffffffffff168173ffffffffffffffffffffffffffffffffffffffff161480610f395750600282620100008110610edf57610ede612d59565b5b600c020160060160010160009054906101000a900473ffffffffffffffffffffffffffffffffffffffff1673ffffffffffffffffffffffffffffffffffffffff168173ffffffffffffffffffffffffffffffffffffffff16145b80610fac5750600282620100008110610f5557610f54612d59565b5b600c0201600a0160009054906101000a900473ffffffffffffffffffffffffffffffffffffffff1673ffffffffffffffffffffffffffffffffffffffff168173ffffffffffffffffffffffffffffffffffffffff16145b610feb576040517f08c379a0000000000000000000000000000000000000000000000000000000008152600401610fe290612ec6565b60405180910390fd5b5050565b6000610ffb8233610e54565b60028262010000811061101157611010612d59565b5b600c0201600201600001549050919050565b6000600154905090565b60028262010000811061104357611042612d59565b5b600c0201600a0160009054906101000a900473ffffffffffffffffffffffffffffffffffffffff1673ffffffffffffffffffffffffffffffffffffffff163373ffffffffffffffffffffffffffffffffffffffff16146110d8576040517f08c379a00000000000000000000000000000000000000000000000000000000081526004016110cf90612f32565b60405180910390fd5b60036002836201000081106110f0576110ef612d59565b5b600c0201600201600201541480156111285750600360028362010000811061111b5761111a612d59565b5b600c020160060160020154145b611167576040517f08c379a000000000000000000000000000000000000000000000000000000000815260040161115e90612fc4565b60405180910390fd5b60018114806111765750600281145b6111b5576040517f08c379a00000000000000000000000000000000000000000000000000000000081526004016111ac90613030565b60405180910390fd5b806002836201000081106111cc576111cb612d59565b5b600c0201600001819055506002826201000081106111ed576111ec612d59565b5b600c02016000015460028362010000811061120b5761120a612d59565b5b600c020160020160000154148015611260575060028262010000811061123457611233612d59565b5b600c02016000015460028362010000811061125257611251612d59565b5b600c02016006016000015414155b1561141457600160028362010000811061127d5761127c612d59565b5b600c020160020160020181905550600280836201000081106112a2576112a1612d59565b5b600c02016006016002018190555060036002836201000081106112c8576112c7612d59565b5b600c02016001018190555060006002836201000081106112eb576112ea612d59565b5b600c02016006016003015460028462010000811061130c5761130b612d59565b5b600c020160020160030154611321919061307f565b905060028362010000811061133957611338612d59565b5b600c020160020160010160009054906101000a900473ffffffffffffffffffffffffffffffffffffffff1673ffffffffffffffffffffffffffffffffffffffff166108fc829081150290604051600060405180830381858888f193505050501580156113a9573d6000803e3d6000fd5b5061140e60405180606001604052806032815260200161369b6032913984836002876201000081106113de576113dd612d59565b5b600c020160020160010160009054906101000a900473ffffffffffffffffffffffffffffffffffffffff16612631565b506118e4565b60028262010000811061142a57611429612d59565b5b600c02016000015460028362010000811061144857611447612d59565b5b600c0201600201600001541415801561149d575060028262010000811061147257611471612d59565b5b600c0201600001546002836201000081106114905761148f612d59565b5b600c020160060160000154145b1561165157600280836201000081106114b9576114b8612d59565b5b600c02016002016002018190555060016002836201000081106114df576114de612d59565b5b600c020160060160020181905550600360028362010000811061150557611504612d59565b5b600c020160010181905550600060028362010000811061152857611527612d59565b5b600c02016006016003015460028462010000811061154957611548612d59565b5b600c02016002016003015461155e919061307f565b905060028362010000811061157657611575612d59565b5b600c020160060160010160009054906101000a900473ffffffffffffffffffffffffffffffffffffffff1673ffffffffffffffffffffffffffffffffffffffff166108fc829081150290604051600060405180830381858888f193505050501580156115e6573d6000803e3d6000fd5b5061164b6040518060600160405280602d81526020016136cd602d9139848360028762010000811061161b5761161a612d59565b5b600c020160060160010160009054906101000a900473ffffffffffffffffffffffffffffffffffffffff16612631565b506118e3565b600560028362010000811061166957611668612d59565b5b600c020160020160020181905550600560028362010000811061168f5761168e612d59565b5b600c02016006016002018190555060006002836201000081106116b5576116b4612d59565b5b600c02016001018190555060006002836201000081106116d8576116d7612d59565b5b600c020160020160030154905060006002846201000081106116fd576116fc612d59565b5b600c02016006016003015490506002846201000081106117205761171f612d59565b5b600c020160020160010160009054906101000a900473ffffffffffffffffffffffffffffffffffffffff1673ffffffffffffffffffffffffffffffffffffffff166108fc839081150290604051600060405180830381858888f19350505050158015611790573d6000803e3d6000fd5b506002846201000081106117a7576117a6612d59565b5b600c020160060160010160009054906101000a900473ffffffffffffffffffffffffffffffffffffffff1673ffffffffffffffffffffffffffffffffffffffff166108fc829081150290604051600060405180830381858888f19350505050158015611817573d6000803e3d6000fd5b5061187c6040518060600160405280602d81526020016136fa602d9139858460028862010000811061184c5761184b612d59565b5b600c020160060160010160009054906101000a900473ffffffffffffffffffffffffffffffffffffffff16612631565b6118e06040518060600160405280602d81526020016136fa602d913985836002886201000081106118b0576118af612d59565b5b600c020160060160010160009054906101000a900473ffffffffffffffffffffffffffffffffffffffff16612631565b50505b5b5050565b60006118f48233610e54565b60028262010000811061190a57611909612d59565b5b600c0201600601600301549050919050565b60006119288233610e54565b60028262010000811061193e5761193d612d59565b5b600c0201600601600201549050919050565b600061195c8233610e54565b60028262010000811061197257611971612d59565b5b600c0201600601600001549050919050565b60018514806119935750600285145b6119d2576040517f08c379a00000000000000000000000000000000000000000000000000000000081526004016119c9906130ff565b60405180910390fd5b6119f860405180606001604052806027815260200161364f6027913960015433346126d3565b6000600182611a07919061311f565b90506040518060c00160405280600081526020016001815260200160405180608001604052808981526020013373ffffffffffffffffffffffffffffffffffffffff168152602001600381526020013481525081526020016040518060800160405280600081526020018673ffffffffffffffffffffffffffffffffffffffff168152602001600481526020018481525081526020018673ffffffffffffffffffffffffffffffffffffffff16815260200185815250620c000260008201518160000155602082015181600101556040820151816002016000820151816000015560208201518160010160006101000a81548173ffffffffffffffffffffffffffffffffffffffff021916908373ffffffffffffffffffffffffffffffffffffffff160217905550604082015181600201556060820151816003015550506060820151816006016000820151816000015560208201518160010160006101000a81548173ffffffffffffffffffffffffffffffffffffffff021916908373ffffffffffffffffffffffffffffffffffffffff16021790555060408201518160020155606082015181600301555050608082015181600a0160006101000a81548173ffffffffffffffffffffffffffffffffffffffff021916908373ffffffffffffffffffffffffffffffffffffffff16021790555060a082015181600b019081611c11919061330d565b5090505060405180608001604052808781526020013373ffffffffffffffffffffffffffffffffffffffff1681526020016003815260200134815250620c00026002016000820151816000015560208201518160010160006101000a81548173ffffffffffffffffffffffffffffffffffffffff021916908373ffffffffffffffffffffffffffffffffffffffff1602179055506040820151816002015560608201518160030155905050620c00026002600154620100008110611cd857611cd7612d59565b5b600c020160008201548160000155600182015481600101556002820181600201600082015481600001556001820160009054906101000a900473ffffffffffffffffffffffffffffffffffffffff168160010160006101000a81548173ffffffffffffffffffffffffffffffffffffffff021916908373ffffffffffffffffffffffffffffffffffffffff160217905550600282015481600201556003820154816003015550506006820181600601600082015481600001556001820160009054906101000a900473ffffffffffffffffffffffffffffffffffffffff168160010160006101000a81548173ffffffffffffffffffffffffffffffffffffffff021916908373ffffffffffffffffffffffffffffffffffffffff16021790555060028201548160020155600382015481600301555050600a820160009054906101000a900473ffffffffffffffffffffffffffffffffffffffff1681600a0160006101000a81548173ffffffffffffffffffffffffffffffffffffffff021916908373ffffffffffffffffffffffffffffffffffffffff160217905550600b820181600b019081611e8991906133f5565b5090505060018054611e9b919061307f565b600181905550505050505050565b60008054906101000a900473ffffffffffffffffffffffffffffffffffffffff1681565b6000600282620100008110611ee557611ee4612d59565b5b600c0201600a0160009054906101000a900473ffffffffffffffffffffffffffffffffffffffff169050919050565b6000600282620100008110611f2c57611f2b612d59565b5b600c020160020160010160009054906101000a900473ffffffffffffffffffffffffffffffffffffffff169050919050565b600281620100008110611f7457611f73612d59565b5b600c0201600601600301543414611fc0576040517f08c379a0000000000000000000000000000000000000000000000000000000008152600401611fb790613529565b60405180910390fd5b600281620100008110611fd657611fd5612d59565b5b600c020160060160010160009054906101000a900473ffffffffffffffffffffffffffffffffffffffff1673ffffffffffffffffffffffffffffffffffffffff163373ffffffffffffffffffffffffffffffffffffffff161461206e576040517f08c379a000000000000000000000000000000000000000000000000000000000815260040161206590612e34565b60405180910390fd5b612092604051806060016040528060258152602001613676602591398233346126d3565b600280826201000081106120a9576120a8612d59565b5b600c020160010181905550600060016002836201000081106120ce576120cd612d59565b5b600c020160020160000154036120e757600290506120ec565b600190505b60405180608001604052808281526020013373ffffffffffffffffffffffffffffffffffffffff168152602001600381526020013481525060028362010000811061213a57612139612d59565b5b600c02016006016000820151816000015560208201518160010160006101000a81548173ffffffffffffffffffffffffffffffffffffffff021916908373ffffffffffffffffffffffffffffffffffffffff16021790555060408201518160020155606082015181600301559050505050565b60006121b98233610e54565b6002826201000081106121cf576121ce612d59565b5b600c0201600001549050919050565b6201000081565b60006121f18233610e54565b60028262010000811061220757612206612d59565b5b600c0201600201600301549050919050565b60015481565b600061222b8233610e54565b60028262010000811061224157612240612d59565b5b600c0201600201600201549050919050565b60028162010000811061226957612268612d59565b5b600c0201600a0160009054906101000a900473ffffffffffffffffffffffffffffffffffffffff1673ffffffffffffffffffffffffffffffffffffffff163373ffffffffffffffffffffffffffffffffffffffff16146122fe576040517f08c379a00000000000000000000000000000000000000000000000000000000081526004016122f590612f32565b60405180910390fd5b600560028262010000811061231657612315612d59565b5b600c020160020160020181905550600560028262010000811061233c5761233b612d59565b5b600c020160060160020181905550600060028262010000811061236257612361612d59565b5b600c020160010181905550600060028262010000811061238557612384612d59565b5b600c020160020160030154905060006002836201000081106123aa576123a9612d59565b5b600c02016006016003015490506002836201000081106123cd576123cc612d59565b5b600c020160020160010160009054906101000a900473ffffffffffffffffffffffffffffffffffffffff1673ffffffffffffffffffffffffffffffffffffffff166108fc839081150290604051600060405180830381858888f1935050505015801561243d573d6000803e3d6000fd5b5060028362010000811061245457612453612d59565b5b600c020160060160010160009054906101000a900473ffffffffffffffffffffffffffffffffffffffff1673ffffffffffffffffffffffffffffffffffffffff166108fc829081150290604051600060405180830381858888f193505050501580156124c4573d6000803e3d6000fd5b506125296040518060600160405280602d81526020016136fa602d913984846002876201000081106124f9576124f8612d59565b5b600c020160060160010160009054906101000a900473ffffffffffffffffffffffffffffffffffffffff16612631565b61258d6040518060600160405280602d81526020016136fa602d9139848360028762010000811061255d5761255c612d59565b5b600c020160060160010160009054906101000a900473ffffffffffffffffffffffffffffffffffffffff16612631565b505050565b61262c8383836040516024016125aa93929190613549565b6040516020818303038152906040527f1c7ec448000000000000000000000000000000000000000000000000000000007bffffffffffffffffffffffffffffffffffffffffffffffffffffffff19166020820180517bffffffffffffffffffffffffffffffffffffffffffffffffffffffff8381831617835250505050612775565b505050565b6126cd8484848460405160240161264b9493929190613587565b6040516020818303038152906040527fe21de278000000000000000000000000000000000000000000000000000000007bffffffffffffffffffffffffffffffffffffffffffffffffffffffff19166020820180517bffffffffffffffffffffffffffffffffffffffffffffffffffffffff8381831617835250505050612775565b50505050565b61276f848484846040516024016126ed94939291906135d3565b6040516020818303038152906040527f4f04fdc6000000000000000000000000000000000000000000000000000000007bffffffffffffffffffffffffffffffffffffffffffffffffffffffff19166020820180517bffffffffffffffffffffffffffffffffffffffffffffffffffffffff8381831617835250505050612775565b50505050565b61278c8161278461278f6127b0565b63ffffffff16565b50565b60006a636f6e736f6c652e6c6f679050600080835160208501845afa505050565b6127bb819050919050565b6127c361361f565b565b6000604051905090565b600080fd5b600080fd5b6000819050919050565b6127ec816127d9565b81146127f757600080fd5b50565b600081359050612809816127e3565b92915050565b600060208284031215612825576128246127cf565b5b6000612833848285016127fa565b91505092915050565b612845816127d9565b82525050565b6000602082019050612860600083018461283c565b92915050565b61286f816127d9565b82525050565b600073ffffffffffffffffffffffffffffffffffffffff82169050919050565b60006128a082612875565b9050919050565b6128b081612895565b82525050565b6080820160008201516128cc6000850182612866565b5060208201516128df60208501826128a7565b5060408201516128f26040850182612866565b5060608201516129056060850182612866565b50505050565b600061291682612875565b9050919050565b6129268161290b565b82525050565b600081519050919050565b600082825260208201905092915050565b60005b8381101561296657808201518184015260208101905061294b565b60008484015250505050565b6000601f19601f8301169050919050565b600061298e8261292c565b6129988185612937565b93506129a8818560208601612948565b6129b181612972565b840191505092915050565b6000610180820190506129d2600083018961283c565b6129df602083018861283c565b6129ec60408301876128b6565b6129f960c08301866128b6565b612a0761014083018561291d565b818103610160830152612a1a8184612983565b9050979650505050505050565b600060c0820190508181036000830152612a418189612983565b90508181036020830152612a558188612983565b90508181036040830152612a698187612983565b9050612a78606083018661283c565b8181036080830152612a8a8185612983565b9050612a9960a083018461283c565b979650505050505050565b60006020820190508181036000830152612abe8184612983565b905092915050565b6000602082019050612adb600083018461291d565b92915050565b612aea8161290b565b8114612af557600080fd5b50565b600081359050612b0781612ae1565b92915050565b60008060408385031215612b2457612b236127cf565b5b6000612b32858286016127fa565b9250506020612b4385828601612af8565b9150509250929050565b60008060408385031215612b6457612b636127cf565b5b6000612b72858286016127fa565b9250506020612b83858286016127fa565b9150509250929050565b600080fd5b600080fd5b7f4e487b7100000000000000000000000000000000000000000000000000000000600052604160045260246000fd5b612bcf82612972565b810181811067ffffffffffffffff82111715612bee57612bed612b97565b5b80604052505050565b6000612c016127c5565b9050612c0d8282612bc6565b919050565b600067ffffffffffffffff821115612c2d57612c2c612b97565b5b612c3682612972565b9050602081019050919050565b82818337600083830152505050565b6000612c65612c6084612c12565b612bf7565b905082815260208101848484011115612c8157612c80612b92565b5b612c8c848285612c43565b509392505050565b600082601f830112612ca957612ca8612b8d565b5b8135612cb9848260208601612c52565b91505092915050565b600080600080600060a08688031215612cde57612cdd6127cf565b5b6000612cec888289016127fa565b9550506020612cfd88828901612af8565b945050604086013567ffffffffffffffff811115612d1e57612d1d6127d4565b5b612d2a88828901612c94565b9350506060612d3b88828901612af8565b9250506080612d4c888289016127fa565b9150509295509295909350565b7f4e487b7100000000000000000000000000000000000000000000000000000000600052603260045260246000fd5b7f4e487b7100000000000000000000000000000000000000000000000000000000600052602260045260246000fd5b60006002820490506001821680612dcf57607f821691505b602082108103612de257612de1612d88565b5b50919050565b7f74616b6572206164647265737320697320696e636f7272656374000000000000600082015250565b6000612e1e601a83612937565b9150612e2982612de8565b602082019050919050565b60006020820190508181036000830152612e4d81612e11565b9050919050565b7f6d757374206265206f726967696e61746f722c2074616b65722c206f72206f7260008201527f61636c6520616464726573730000000000000000000000000000000000000000602082015250565b6000612eb0602c83612937565b9150612ebb82612e54565b604082019050919050565b60006020820190508181036000830152612edf81612ea3565b9050919050565b7f6f7261636c65206164647265737320697320696e636f72726563740000000000600082015250565b6000612f1c601b83612937565b9150612f2782612ee6565b602082019050919050565b60006020820190508181036000830152612f4b81612f0f565b9050919050565b7f42657474657242657420737461747573206f6620656974686572206f7269676960008201527f6e61746f72206f722074616b6572206973206e6f742070656e64696e67000000602082015250565b6000612fae603d83612937565b9150612fb982612f52565b604082019050919050565b60006020820190508181036000830152612fdd81612fa1565b9050919050565b7f6f7574636f6d65206d7573742062652031206f72203200000000000000000000600082015250565b600061301a601683612937565b915061302582612fe4565b602082019050919050565b600060208201905081810360008301526130498161300d565b9050919050565b7f4e487b7100000000000000000000000000000000000000000000000000000000600052601160045260246000fd5b600061308a826127d9565b9150613095836127d9565b92508282019050808211156130ad576130ac613050565b5b92915050565b7f6775657373206973206e6f742073657420746f2031206f722032000000000000600082015250565b60006130e9601a83612937565b91506130f4826130b3565b602082019050919050565b60006020820190508181036000830152613118816130dc565b9050919050565b600061312a826127d9565b9150613135836127d9565b9250828202613143816127d9565b9150828204841483151761315a57613159613050565b5b5092915050565b60008190508160005260206000209050919050565b60006020601f8301049050919050565b600082821b905092915050565b6000600883026131c37fffffffffffffffffffffffffffffffffffffffffffffffffffffffffffffffff82613186565b6131cd8683613186565b95508019841693508086168417925050509392505050565b6000819050919050565b600061320a613205613200846127d9565b6131e5565b6127d9565b9050919050565b6000819050919050565b613224836131ef565b61323861323082613211565b848454613193565b825550505050565b600090565b61324d613240565b61325881848461321b565b505050565b5b8181101561327c57613271600082613245565b60018101905061325e565b5050565b601f8211156132c15761329281613161565b61329b84613176565b810160208510156132aa578190505b6132be6132b685613176565b83018261325d565b50505b505050565b600082821c905092915050565b60006132e4600019846008026132c6565b1980831691505092915050565b60006132fd83836132d3565b9150826002028217905092915050565b6133168261292c565b67ffffffffffffffff81111561332f5761332e612b97565b5b6133398254612db7565b613344828285613280565b600060209050601f8311600181146133775760008415613365578287015190505b61336f85826132f1565b8655506133d7565b601f19841661338586613161565b60005b828110156133ad57848901518255600182019150602085019450602081019050613388565b868310156133ca57848901516133c6601f8916826132d3565b8355505b6001600288020188555050505b505050505050565b6000815490506133ee81612db7565b9050919050565b8181036134035750506134db565b61340c826133df565b67ffffffffffffffff81111561342557613424612b97565b5b61342f8254612db7565b61343a828285613280565b6000601f8311600181146134695760008415613457578287015490505b61346185826132f1565b8655506134d4565b601f19841661347787613161565b965061348286613161565b60005b828110156134aa57848901548255600182019150600185019450602081019050613485565b868310156134c757848901546134c3601f8916826132d3565b8355505b6001600288020188555050505b5050505050505b565b7f62657420616d6f756e7420697320696e636f7272656374000000000000000000600082015250565b6000613513601783612937565b915061351e826134dd565b602082019050919050565b6000602082019050818103600083015261354281613506565b9050919050565b600060608201905081810360008301526135638186612983565b9050613572602083018561283c565b61357f604083018461291d565b949350505050565b600060808201905081810360008301526135a18187612983565b90506135b0602083018661283c565b6135bd604083018561283c565b6135ca606083018461291d565b95945050505050565b600060808201905081810360008301526135ed8187612983565b90506135fc602083018661283c565b613609604083018561291d565b613616606083018461283c565b95945050505050565b7f4e487b7100000000000000000000000000000000000000000000000000000000600052605160045260246000fdfe4372656174696e67204265745b25735d2066726f6d202573207769746820616d6f756e7420257354616b696e67204265745b25735d2066726f6d202573207769746820616d6f756e742025734f726967696e61746f7220576f6e3a20506179696e67206f7574204265745b25735d20616d6f756e7420257320746f20257354616b657220576f6e3a20506179696e67206f7574204265745b25735d20616d6f756e7420257320746f2025734e6f6f6e6520576f6e3a20506179696e67206f7574204265745b25735d20616d6f756e7420257320746f202573a26469706673582212205e84dfb412bbc456694115a628eeb0ef2d761bdc7583e39709cf426a6b3467e264736f6c63430008180033",
  "linkReferences": {},
  "deployedLinkReferences": {}
}