{
  "_format": "hh-sol-artifact-1",
  "contractName": "BlockBet",
  "sourceName": "contracts/BlockBet.sol",
  "abi": [
    {
      "inputs": [],
      "stateMutability": "nonpayable",
      "type": "constructor"
    },
    {
      "anonymous": false,
      "inputs": [],
      "name": "BetCreated",
      "type": "event"
    },
    {
      "inputs": [],
      "name": "arraySize",
      "outputs": [
        {
          "internalType": "uint256",
          "name": "",
          "type": "uint256"
        }
      ],
      "stateMutability": "view",
      "type": "function"
    },
    {
      "inputs": [],
      "name": "betInd",
      "outputs": [
        {
          "internalType": "uint256",
          "name": "",
          "type": "uint256"
        }
      ],
      "stateMutability": "view",
      "type": "function"
    },
    {
      "inputs": [
        {
          "internalType": "uint256",
          "name": "_guess",
          "type": "uint256"
        },
        {
          "internalType": "address",
          "name": "_oracle",
          "type": "address"
        },
        {
          "internalType": "string",
          "name": "_betDescription",
          "type": "string"
        },
        {
          "internalType": "address",
          "name": "_takerAddr",
          "type": "address"
        },
        {
          "internalType": "uint256",
          "name": "takerBetAmount",
          "type": "uint256"
        }
      ],
      "name": "createBet",
      "outputs": [],
      "stateMutability": "payable",
      "type": "function"
    },
    {
      "inputs": [
        {
          "internalType": "uint256",
          "name": "betID",
          "type": "uint256"
        }
      ],
      "name": "denyBet",
      "outputs": [],
      "stateMutability": "payable",
      "type": "function"
    },
    {
      "inputs": [
        {
          "internalType": "uint256",
          "name": "",
          "type": "uint256"
        }
      ],
      "name": "games",
      "outputs": [
        {
          "internalType": "uint256",
          "name": "outcome",
          "type": "uint256"
        },
        {
          "internalType": "uint256",
          "name": "status",
          "type": "uint256"
        },
        {
          "components": [
            {
              "internalType": "uint256",
              "name": "guess",
              "type": "uint256"
            },
            {
              "internalType": "address payable",
              "name": "addr",
              "type": "address"
            },
            {
              "internalType": "uint256",
              "name": "status",
              "type": "uint256"
            },
            {
              "internalType": "uint256",
              "name": "betAmount",
              "type": "uint256"
            }
          ],
          "internalType": "struct BlockBet.BetterBet",
          "name": "originator",
          "type": "tuple"
        },
        {
          "components": [
            {
              "internalType": "uint256",
              "name": "guess",
              "type": "uint256"
            },
            {
              "internalType": "address payable",
              "name": "addr",
              "type": "address"
            },
            {
              "internalType": "uint256",
              "name": "status",
              "type": "uint256"
            },
            {
              "internalType": "uint256",
              "name": "betAmount",
              "type": "uint256"
            }
          ],
          "internalType": "struct BlockBet.BetterBet",
          "name": "taker",
          "type": "tuple"
        },
        {
          "internalType": "address",
          "name": "oracle",
          "type": "address"
        },
        {
          "internalType": "string",
          "name": "betDescription",
          "type": "string"
        }
      ],
      "stateMutability": "view",
      "type": "function"
    },
    {
      "inputs": [],
      "name": "getBalance",
      "outputs": [
        {
          "internalType": "uint256",
          "name": "",
          "type": "uint256"
        }
      ],
      "stateMutability": "view",
      "type": "function"
    },
    {
      "inputs": [
        {
          "internalType": "uint256",
          "name": "betID",
          "type": "uint256"
        }
      ],
      "name": "getBetDescription",
      "outputs": [
        {
          "internalType": "string",
          "name": "",
          "type": "string"
        }
      ],
      "stateMutability": "view",
      "type": "function"
    },
    {
      "inputs": [
        {
          "internalType": "uint256",
          "name": "betID",
          "type": "uint256"
        }
      ],
      "name": "getBetOutcome",
      "outputs": [
        {
          "internalType": "string",
          "name": "description",
          "type": "string"
        },
        {
          "internalType": "string",
          "name": "outcome",
          "type": "string"
        },
        {
          "internalType": "string",
          "name": "originatorKey",
          "type": "string"
        },
        {
          "internalType": "uint256",
          "name": "originatorStatus",
          "type": "uint256"
        },
        {
          "internalType": "string",
          "name": "takerKey",
          "type": "string"
        },
        {
          "internalType": "uint256",
          "name": "takerStatus",
          "type": "uint256"
        }
      ],
      "stateMutability": "view",
      "type": "function"
    },
    {
      "inputs": [
        {
          "internalType": "uint256",
          "name": "betID",
          "type": "uint256"
        }
      ],
      "name": "getGameStatus",
      "outputs": [
        {
          "internalType": "uint256",
          "name": "",
          "type": "uint256"
        }
      ],
      "stateMutability": "view",
      "type": "function"
    },
    {
      "inputs": [
        {
          "internalType": "uint256",
          "name": "betID",
          "type": "uint256"
        }
      ],
      "name": "getOracleAddress",
      "outputs": [
        {
          "internalType": "address",
          "name": "",
          "type": "address"
        }
      ],
      "stateMutability": "view",
      "type": "function"
    },
    {
      "inputs": [
        {
          "internalType": "uint256",
          "name": "betID",
          "type": "uint256"
        }
      ],
      "name": "getOriginatorAddress",
      "outputs": [
        {
          "internalType": "address",
          "name": "",
          "type": "address"
        }
      ],
      "stateMutability": "view",
      "type": "function"
    },
    {
      "inputs": [
        {
          "internalType": "uint256",
          "name": "betID",
          "type": "uint256"
        }
      ],
      "name": "getOriginatorBetAmount",
      "outputs": [
        {
          "internalType": "uint256",
          "name": "",
          "type": "uint256"
        }
      ],
      "stateMutability": "view",
      "type": "function"
    },
    {
      "inputs": [
        {
          "internalType": "uint256",
          "name": "betID",
          "type": "uint256"
        }
      ],
      "name": "getOriginatorGuess",
      "outputs": [
        {
          "internalType": "uint256",
          "name": "",
          "type": "uint256"
        }
      ],
      "stateMutability": "view",
      "type": "function"
    },
    {
      "inputs": [
        {
          "internalType": "uint256",
          "name": "betID",
          "type": "uint256"
        }
      ],
      "name": "getOriginatorStatus",
      "outputs": [
        {
          "internalType": "uint256",
          "name": "",
          "type": "uint256"
        }
      ],
      "stateMutability": "view",
      "type": "function"
    },
    {
      "inputs": [
        {
          "internalType": "uint256",
          "name": "betID",
          "type": "uint256"
        }
      ],
      "name": "getOutcome",
      "outputs": [
        {
          "internalType": "uint256",
          "name": "",
          "type": "uint256"
        }
      ],
      "stateMutability": "view",
      "type": "function"
    },
    {
      "inputs": [
        {
          "internalType": "uint256",
          "name": "betID",
          "type": "uint256"
        }
      ],
      "name": "getTakerAddress",
      "outputs": [
        {
          "internalType": "address",
          "name": "",
          "type": "address"
        }
      ],
      "stateMutability": "view",
      "type": "function"
    },
    {
      "inputs": [
        {
          "internalType": "uint256",
          "name": "betID",
          "type": "uint256"
        }
      ],
      "name": "getTakerBetAmount",
      "outputs": [
        {
          "internalType": "uint256",
          "name": "",
          "type": "uint256"
        }
      ],
      "stateMutability": "view",
      "type": "function"
    },
    {
      "inputs": [
        {
          "internalType": "uint256",
          "name": "betID",
          "type": "uint256"
        }
      ],
      "name": "getTakerGuess",
      "outputs": [
        {
          "internalType": "uint256",
          "name": "",
          "type": "uint256"
        }
      ],
      "stateMutability": "view",
      "type": "function"
    },
    {
      "inputs": [
        {
          "internalType": "uint256",
          "name": "betID",
          "type": "uint256"
        }
      ],
      "name": "getTakerStatus",
      "outputs": [
        {
          "internalType": "uint256",
          "name": "",
          "type": "uint256"
        }
      ],
      "stateMutability": "view",
      "type": "function"
    },
    {
      "inputs": [
        {
          "internalType": "uint256",
          "name": "betID",
          "type": "uint256"
        }
      ],
      "name": "nullBet",
      "outputs": [],
      "stateMutability": "payable",
      "type": "function"
    },
    {
      "inputs": [],
      "name": "owner",
      "outputs": [
        {
          "internalType": "address",
          "name": "",
          "type": "address"
        }
      ],
      "stateMutability": "view",
      "type": "function"
    },
    {
      "inputs": [
        {
          "internalType": "uint256",
          "name": "betID",
          "type": "uint256"
        }
      ],
      "name": "payout",
      "outputs": [],
      "stateMutability": "payable",
      "type": "function"
    },
    {
      "inputs": [
        {
          "internalType": "uint256",
          "name": "betID",
          "type": "uint256"
        },
        {
          "internalType": "uint256",
          "name": "_outcome",
          "type": "uint256"
        }
      ],
      "name": "setBetOutcome",
      "outputs": [],
      "stateMutability": "nonpayable",
      "type": "function"
    },
    {
      "inputs": [
        {
          "internalType": "uint256",
          "name": "betID",
          "type": "uint256"
        }
      ],
      "name": "takeBet",
      "outputs": [],
      "stateMutability": "payable",
      "type": "function"
    }
  ],
  "bytecode": "0x6080604052600060015534801561001557600080fd5b50336000806101000a81548173ffffffffffffffffffffffffffffffffffffffff021916908373ffffffffffffffffffffffffffffffffffffffff160217905550613881806100656000396000f3fe60806040526004361061014b5760003560e01c80638da5cb5b116100b6578063e11523431161006f578063e11523431461050b578063e1feadfd14610527578063e59286d814610564578063ef4be8001461058f578063f373ae31146105cc578063f67feccc146105e85761014b565b80638da5cb5b146103e25780639217c4381461040d578063aa8e73261461044a578063c511a07414610487578063cd579335146104a3578063e0f6ff43146104e05761014b565b80633145b496116101085780633145b4961461029557806348f1b5b9146102d25780636d4f45421461030f57806371c57ca21461034c57806381d335fe146103895780638a8263e2146103c65761014b565b80630f1bf45414610150578063117a5b901461018d57806312065fe0146101cf57806318aea0c8146101fa5780631a421ad21461023c578063294ba4b414610258575b600080fd5b34801561015c57600080fd5b50610177600480360381019061017291906128e3565b610611565b604051610184919061291f565b60405180910390f35b34801561019957600080fd5b506101b460048036038101906101af91906128e3565b610642565b6040516101c696959493929190612a90565b60405180910390f35b3480156101db57600080fd5b506101e461082a565b6040516101f1919061291f565b60405180910390f35b34801561020657600080fd5b50610221600480360381019061021c91906128e3565b610837565b60405161023396959493929190612afb565b60405180910390f35b610256600480360381019061025191906128e3565b610b5a565b005b34801561026457600080fd5b5061027f600480360381019061027a91906128e3565b610d15565b60405161028c9190612b78565b60405180910390f35b3480156102a157600080fd5b506102bc60048036038101906102b791906128e3565b610dce565b6040516102c99190612b9a565b60405180910390f35b3480156102de57600080fd5b506102f960048036038101906102f491906128e3565b610e22565b604051610306919061291f565b60405180910390f35b34801561031b57600080fd5b50610336600480360381019061033191906128e3565b610e56565b604051610343919061291f565b60405180910390f35b34801561035857600080fd5b50610373600480360381019061036e91906128e3565b610e8a565b604051610380919061291f565b60405180910390f35b34801561039557600080fd5b506103b060048036038101906103ab91906128e3565b610ebe565b6040516103bd919061291f565b60405180910390f35b6103e060048036038101906103db9190612d16565b610ef2565b005b3480156103ee57600080fd5b506103f7611417565b6040516104049190612b9a565b60405180910390f35b34801561041957600080fd5b50610434600480360381019061042f91906128e3565b61143b565b6040516104419190612b9a565b60405180910390f35b34801561045657600080fd5b50610471600480360381019061046c91906128e3565b61148c565b60405161047e9190612b9a565b60405180910390f35b6104a1600480360381019061049c91906128e3565b6114e0565b005b3480156104af57600080fd5b506104ca60048036038101906104c591906128e3565b61172f565b6040516104d7919061291f565b60405180910390f35b3480156104ec57600080fd5b506104f5611760565b604051610502919061291f565b60405180910390f35b610525600480360381019061052091906128e3565b611767565b005b34801561053357600080fd5b5061054e600480360381019061054991906128e3565b611d6b565b60405161055b919061291f565b60405180910390f35b34801561057057600080fd5b50610579611d9f565b604051610586919061291f565b60405180910390f35b34801561059b57600080fd5b506105b660048036038101906105b191906128e3565b611da5565b6040516105c3919061291f565b60405180910390f35b6105e660048036038101906105e191906128e3565b611dd9565b005b3480156105f457600080fd5b5061060f600480360381019061060a9190612dad565b6120a9565b005b600061061d82336124cb565b60028262010000811061063357610632612ded565b5b600c0201600101549050919050565b60028162010000811061065457600080fd5b600c020160009150905080600001549080600101549080600201604051806080016040529081600082015481526020016001820160009054906101000a900473ffffffffffffffffffffffffffffffffffffffff1673ffffffffffffffffffffffffffffffffffffffff1673ffffffffffffffffffffffffffffffffffffffff168152602001600282015481526020016003820154815250509080600601604051806080016040529081600082015481526020016001820160009054906101000a900473ffffffffffffffffffffffffffffffffffffffff1673ffffffffffffffffffffffffffffffffffffffff1673ffffffffffffffffffffffffffffffffffffffff168152602001600282015481526020016003820154815250509080600a0160009054906101000a900473ffffffffffffffffffffffffffffffffffffffff169080600b0180546107a790612e4b565b80601f01602080910402602001604051908101604052809291908181526020018280546107d390612e4b565b80156108205780601f106107f557610100808354040283529160200191610820565b820191906000526020600020905b81548152906001019060200180831161080357829003601f168201915b5050505050905086565b6000804790508091505090565b6060806060600060606000600160028862010000811061085a57610859612ded565b5b600c02016002016002015414801561089157506002808862010000811061088457610883612ded565b5b600c020160060160020154145b156108d3576040518060400160405280601e81526020017f426574206f726967696e61746f722068617320776f6e20746865206265740000815250955061099e565b600280886201000081106108ea576108e9612ded565b5b600c0201600201600201541480156109225750600160028862010000811061091557610914612ded565b5b600c020160060160020154145b15610964576040518060400160405280601981526020017f4265742074616b65722068617320776f6e207468652062657400000000000000815250955061099d565b6040518060400160405280601381526020017f556e6b6e6f776e20426574204f7574636f6d650000000000000000000000000081525095505b5b60016002886201000081106109b6576109b5612ded565b5b600c02016000015403610a00576040518060400160405280600481526020017f54727565000000000000000000000000000000000000000000000000000000008152509450610a9b565b60028088620100008110610a1757610a16612ded565b5b600c02016000015403610a61576040518060400160405280600581526020017f46616c73650000000000000000000000000000000000000000000000000000008152509450610a9a565b6040518060400160405280601481526020017f556e6b6e6f776e2047616d65204f7574636f6d6500000000000000000000000081525094505b5b6040518060400160405280600a81526020017f6f726967696e61746f72000000000000000000000000000000000000000000008152509350600287620100008110610ae957610ae8612ded565b5b600c02016002016002015492506040518060400160405280600581526020017f74616b65720000000000000000000000000000000000000000000000000000008152509150600287620100008110610b4457610b43612ded565b5b600c020160060160020154905091939550919395565b600281620100008110610b7057610b6f612ded565b5b600c020160060160010160009054906101000a900473ffffffffffffffffffffffffffffffffffffffff1673ffffffffffffffffffffffffffffffffffffffff163373ffffffffffffffffffffffffffffffffffffffff1614610c08576040517f08c379a0000000000000000000000000000000000000000000000000000000008152600401610bff90612ec8565b60405180910390fd5b610c486040518060400160405280601781526020017f44656e79696e67204265745b25735d2066726f6d2025730000000000000000008152508233612666565b6000600282620100008110610c6057610c5f612ded565b5b600c020160010181905550600281620100008110610c8157610c80612ded565b5b600c020160020160010160009054906101000a900473ffffffffffffffffffffffffffffffffffffffff1673ffffffffffffffffffffffffffffffffffffffff166108fc600283620100008110610cdb57610cda612ded565b5b600c0201600201600301549081150290604051600060405180830381858888f19350505050158015610d11573d6000803e3d6000fd5b5050565b6060610d2182336124cb565b600282620100008110610d3757610d36612ded565b5b600c0201600b018054610d4990612e4b565b80601f0160208091040260200160405190810160405280929190818152602001828054610d7590612e4b565b8015610dc25780601f10610d9757610100808354040283529160200191610dc2565b820191906000526020600020905b815481529060010190602001808311610da557829003601f168201915b50505050509050919050565b6000610dda82336124cb565b600282620100008110610df057610def612ded565b5b600c020160060160010160009054906101000a900473ffffffffffffffffffffffffffffffffffffffff169050919050565b6000610e2e82336124cb565b600282620100008110610e4457610e43612ded565b5b600c0201600201600001549050919050565b6000610e6282336124cb565b600282620100008110610e7857610e77612ded565b5b600c0201600601600301549050919050565b6000610e9682336124cb565b600282620100008110610eac57610eab612ded565b5b600c0201600601600201549050919050565b6000610eca82336124cb565b600282620100008110610ee057610edf612ded565b5b600c0201600601600001549050919050565b6001851480610f015750600285145b610f40576040517f08c379a0000000000000000000000000000000000000000000000000000000008152600401610f3790612f34565b60405180910390fd5b610f6660405180606001604052806027815260200161374f602791396001543334612705565b6000600182610f759190612f83565b90506040518060c00160405280600081526020016001815260200160405180608001604052808981526020013373ffffffffffffffffffffffffffffffffffffffff168152602001600381526020013481525081526020016040518060800160405280600081526020018673ffffffffffffffffffffffffffffffffffffffff168152602001600481526020018481525081526020018673ffffffffffffffffffffffffffffffffffffffff16815260200185815250620c000260008201518160000155602082015181600101556040820151816002016000820151816000015560208201518160010160006101000a81548173ffffffffffffffffffffffffffffffffffffffff021916908373ffffffffffffffffffffffffffffffffffffffff160217905550604082015181600201556060820151816003015550506060820151816006016000820151816000015560208201518160010160006101000a81548173ffffffffffffffffffffffffffffffffffffffff021916908373ffffffffffffffffffffffffffffffffffffffff16021790555060408201518160020155606082015181600301555050608082015181600a0160006101000a81548173ffffffffffffffffffffffffffffffffffffffff021916908373ffffffffffffffffffffffffffffffffffffffff16021790555060a082015181600b01908161117f9190613171565b5090505060405180608001604052808781526020013373ffffffffffffffffffffffffffffffffffffffff1681526020016003815260200134815250620c00026002016000820151816000015560208201518160010160006101000a81548173ffffffffffffffffffffffffffffffffffffffff021916908373ffffffffffffffffffffffffffffffffffffffff1602179055506040820151816002015560608201518160030155905050620c0002600260015462010000811061124657611245612ded565b5b600c020160008201548160000155600182015481600101556002820181600201600082015481600001556001820160009054906101000a900473ffffffffffffffffffffffffffffffffffffffff168160010160006101000a81548173ffffffffffffffffffffffffffffffffffffffff021916908373ffffffffffffffffffffffffffffffffffffffff160217905550600282015481600201556003820154816003015550506006820181600601600082015481600001556001820160009054906101000a900473ffffffffffffffffffffffffffffffffffffffff168160010160006101000a81548173ffffffffffffffffffffffffffffffffffffffff021916908373ffffffffffffffffffffffffffffffffffffffff16021790555060028201548160020155600382015481600301555050600a820160009054906101000a900473ffffffffffffffffffffffffffffffffffffffff1681600a0160006101000a81548173ffffffffffffffffffffffffffffffffffffffff021916908373ffffffffffffffffffffffffffffffffffffffff160217905550600b820181600b0190816113f79190613259565b50905050600180546114099190613341565b600181905550505050505050565b60008054906101000a900473ffffffffffffffffffffffffffffffffffffffff1681565b600061144782336124cb565b60028262010000811061145d5761145c612ded565b5b600c0201600a0160009054906101000a900473ffffffffffffffffffffffffffffffffffffffff169050919050565b600061149882336124cb565b6002826201000081106114ae576114ad612ded565b5b600c020160020160010160009054906101000a900473ffffffffffffffffffffffffffffffffffffffff169050919050565b6002816201000081106114f6576114f5612ded565b5b600c0201600601600301543414611542576040517f08c379a0000000000000000000000000000000000000000000000000000000008152600401611539906133c1565b60405180910390fd5b60028162010000811061155857611557612ded565b5b600c020160060160010160009054906101000a900473ffffffffffffffffffffffffffffffffffffffff1673ffffffffffffffffffffffffffffffffffffffff163373ffffffffffffffffffffffffffffffffffffffff16146115f0576040517f08c379a00000000000000000000000000000000000000000000000000000000081526004016115e790612ec8565b60405180910390fd5b61161460405180606001604052806025815260200161377660259139823334612705565b6002808262010000811061162b5761162a612ded565b5b600c020160010181905550600060016002836201000081106116505761164f612ded565b5b600c02016002016000015403611669576002905061166e565b600190505b60405180608001604052808281526020013373ffffffffffffffffffffffffffffffffffffffff16815260200160038152602001348152506002836201000081106116bc576116bb612ded565b5b600c02016006016000820151816000015560208201518160010160006101000a81548173ffffffffffffffffffffffffffffffffffffffff021916908373ffffffffffffffffffffffffffffffffffffffff16021790555060408201518160020155606082015181600301559050505050565b600061173b82336124cb565b60028262010000811061175157611750612ded565b5b600c0201600001549050919050565b6201000081565b60028162010000811061177d5761177c612ded565b5b600c0201600a0160009054906101000a900473ffffffffffffffffffffffffffffffffffffffff1673ffffffffffffffffffffffffffffffffffffffff163373ffffffffffffffffffffffffffffffffffffffff1614611812576040517f08c379a00000000000000000000000000000000000000000000000000000000081526004016118099061342d565b60405180910390fd5b600360028262010000811061182a57611829612ded565b5b600c02016001015414611872576040517f08c379a000000000000000000000000000000000000000000000000000000000815260040161186990613499565b60405180910390fd5b600160028262010000811061188a57611889612ded565b5b600c020160020160020154036119db5760006002826201000081106118b2576118b1612ded565b5b600c0201600601600301546002836201000081106118d3576118d2612ded565b5b600c0201600201600301546118e89190613341565b9050600282620100008110611900576118ff612ded565b5b600c020160020160010160009054906101000a900473ffffffffffffffffffffffffffffffffffffffff1673ffffffffffffffffffffffffffffffffffffffff166108fc829081150290604051600060405180830381858888f19350505050158015611970573d6000803e3d6000fd5b506119d56040518060600160405280603281526020016137c06032913983836002866201000081106119a5576119a4612ded565b5b600c020160020160010160009054906101000a900473ffffffffffffffffffffffffffffffffffffffff166127a7565b50611d68565b60016002826201000081106119f3576119f2612ded565b5b600c02016006016002015403611b44576000600282620100008110611a1b57611a1a612ded565b5b600c020160060160030154600283620100008110611a3c57611a3b612ded565b5b600c020160020160030154611a519190613341565b9050600282620100008110611a6957611a68612ded565b5b600c020160060160010160009054906101000a900473ffffffffffffffffffffffffffffffffffffffff1673ffffffffffffffffffffffffffffffffffffffff166108fc829081150290604051600060405180830381858888f19350505050158015611ad9573d6000803e3d6000fd5b50611b3e6040518060600160405280602d81526020016137f2602d91398383600286620100008110611b0e57611b0d612ded565b5b600c020160060160010160009054906101000a900473ffffffffffffffffffffffffffffffffffffffff166127a7565b50611d67565b6000600282620100008110611b5c57611b5b612ded565b5b600c02016002016003015490506000600283620100008110611b8157611b80612ded565b5b600c0201600601600301549050600283620100008110611ba457611ba3612ded565b5b600c020160020160010160009054906101000a900473ffffffffffffffffffffffffffffffffffffffff1673ffffffffffffffffffffffffffffffffffffffff166108fc839081150290604051600060405180830381858888f19350505050158015611c14573d6000803e3d6000fd5b50600283620100008110611c2b57611c2a612ded565b5b600c020160060160010160009054906101000a900473ffffffffffffffffffffffffffffffffffffffff1673ffffffffffffffffffffffffffffffffffffffff166108fc829081150290604051600060405180830381858888f19350505050158015611c9b573d6000803e3d6000fd5b50611d006040518060600160405280602d815260200161381f602d91398484600287620100008110611cd057611ccf612ded565b5b600c020160060160010160009054906101000a900473ffffffffffffffffffffffffffffffffffffffff166127a7565b611d646040518060600160405280602d815260200161381f602d91398483600287620100008110611d3457611d33612ded565b5b600c020160060160010160009054906101000a900473ffffffffffffffffffffffffffffffffffffffff166127a7565b50505b5b50565b6000611d7782336124cb565b600282620100008110611d8d57611d8c612ded565b5b600c0201600201600301549050919050565b60015481565b6000611db182336124cb565b600282620100008110611dc757611dc6612ded565b5b600c0201600201600201549050919050565b600281620100008110611def57611dee612ded565b5b600c0201600a0160009054906101000a900473ffffffffffffffffffffffffffffffffffffffff1673ffffffffffffffffffffffffffffffffffffffff163373ffffffffffffffffffffffffffffffffffffffff1614611e84576040517f08c379a0000000000000000000000000000000000000000000000000000000008152600401611e7b9061342d565b60405180910390fd5b6000600282620100008110611e9c57611e9b612ded565b5b600c02016002016003015490506000600283620100008110611ec157611ec0612ded565b5b600c0201600601600301549050600283620100008110611ee457611ee3612ded565b5b600c020160020160010160009054906101000a900473ffffffffffffffffffffffffffffffffffffffff1673ffffffffffffffffffffffffffffffffffffffff166108fc839081150290604051600060405180830381858888f19350505050158015611f54573d6000803e3d6000fd5b50600283620100008110611f6b57611f6a612ded565b5b600c020160060160010160009054906101000a900473ffffffffffffffffffffffffffffffffffffffff1673ffffffffffffffffffffffffffffffffffffffff166108fc829081150290604051600060405180830381858888f19350505050158015611fdb573d6000803e3d6000fd5b506120406040518060600160405280602d815260200161381f602d913984846002876201000081106120105761200f612ded565b5b600c020160060160010160009054906101000a900473ffffffffffffffffffffffffffffffffffffffff166127a7565b6120a46040518060600160405280602d815260200161381f602d9139848360028762010000811061207457612073612ded565b5b600c020160060160010160009054906101000a900473ffffffffffffffffffffffffffffffffffffffff166127a7565b505050565b6002826201000081106120bf576120be612ded565b5b600c0201600a0160009054906101000a900473ffffffffffffffffffffffffffffffffffffffff1673ffffffffffffffffffffffffffffffffffffffff163373ffffffffffffffffffffffffffffffffffffffff1614612154576040517f08c379a000000000000000000000000000000000000000000000000000000000815260040161214b9061342d565b60405180910390fd5b600360028362010000811061216c5761216b612ded565b5b600c0201600201600201541480156121a45750600360028362010000811061219757612196612ded565b5b600c020160060160020154145b6121e3576040517f08c379a00000000000000000000000000000000000000000000000000000000081526004016121da9061352b565b60405180910390fd5b60018114806121f25750600281145b612231576040517f08c379a000000000000000000000000000000000000000000000000000000000815260040161222890613597565b60405180910390fd5b61225560405180606001604052806025815260200161379b602591398383336127a7565b8060028362010000811061226c5761226b612ded565b5b600c020160000181905550600360028362010000811061228f5761228e612ded565b5b600c0201600101819055506002826201000081106122b0576122af612ded565b5b600c0201600001546002836201000081106122ce576122cd612ded565b5b600c02016002016000015414801561232357506002826201000081106122f7576122f6612ded565b5b600c02016000015460028362010000811061231557612314612ded565b5b600c02016006016000015414155b156123785760016002836201000081106123405761233f612ded565b5b600c0201600201600201819055506002808362010000811061236557612364612ded565b5b600c0201600601600201819055506124c7565b60028262010000811061238e5761238d612ded565b5b600c0201600001546002836201000081106123ac576123ab612ded565b5b600c0201600201600001541415801561240157506002826201000081106123d6576123d5612ded565b5b600c0201600001546002836201000081106123f4576123f3612ded565b5b600c020160060160000154145b15612456576002808362010000811061241d5761241c612ded565b5b600c020160020160020181905550600160028362010000811061244357612442612ded565b5b600c0201600601600201819055506124c6565b600560028362010000811061246e5761246d612ded565b5b600c020160020160020181905550600560028362010000811061249457612493612ded565b5b600c02016006016002018190555060056002836201000081106124ba576124b9612ded565b5b600c0201600101819055505b5b5050565b6002826201000081106124e1576124e0612ded565b5b600c020160020160010160009054906101000a900473ffffffffffffffffffffffffffffffffffffffff1673ffffffffffffffffffffffffffffffffffffffff168173ffffffffffffffffffffffffffffffffffffffff1614806125b0575060028262010000811061255657612555612ded565b5b600c020160060160010160009054906101000a900473ffffffffffffffffffffffffffffffffffffffff1673ffffffffffffffffffffffffffffffffffffffff168173ffffffffffffffffffffffffffffffffffffffff16145b8061262357506002826201000081106125cc576125cb612ded565b5b600c0201600a0160009054906101000a900473ffffffffffffffffffffffffffffffffffffffff1673ffffffffffffffffffffffffffffffffffffffff168173ffffffffffffffffffffffffffffffffffffffff16145b612662576040517f08c379a000000000000000000000000000000000000000000000000000000000815260040161265990613629565b60405180910390fd5b5050565b61270083838360405160240161267e93929190613649565b6040516020818303038152906040527f1c7ec448000000000000000000000000000000000000000000000000000000007bffffffffffffffffffffffffffffffffffffffffffffffffffffffff19166020820180517bffffffffffffffffffffffffffffffffffffffffffffffffffffffff8381831617835250505050612849565b505050565b6127a18484848460405160240161271f9493929190613687565b6040516020818303038152906040527f4f04fdc6000000000000000000000000000000000000000000000000000000007bffffffffffffffffffffffffffffffffffffffffffffffffffffffff19166020820180517bffffffffffffffffffffffffffffffffffffffffffffffffffffffff8381831617835250505050612849565b50505050565b612843848484846040516024016127c194939291906136d3565b6040516020818303038152906040527fe21de278000000000000000000000000000000000000000000000000000000007bffffffffffffffffffffffffffffffffffffffffffffffffffffffff19166020820180517bffffffffffffffffffffffffffffffffffffffffffffffffffffffff8381831617835250505050612849565b50505050565b61286081612858612863612884565b63ffffffff16565b50565b60006a636f6e736f6c652e6c6f679050600080835160208501845afa505050565b61288f819050919050565b61289761371f565b565b6000604051905090565b600080fd5b600080fd5b6000819050919050565b6128c0816128ad565b81146128cb57600080fd5b50565b6000813590506128dd816128b7565b92915050565b6000602082840312156128f9576128f86128a3565b5b6000612907848285016128ce565b91505092915050565b612919816128ad565b82525050565b60006020820190506129346000830184612910565b92915050565b612943816128ad565b82525050565b600073ffffffffffffffffffffffffffffffffffffffff82169050919050565b600061297482612949565b9050919050565b61298481612969565b82525050565b6080820160008201516129a0600085018261293a565b5060208201516129b3602085018261297b565b5060408201516129c6604085018261293a565b5060608201516129d9606085018261293a565b50505050565b60006129ea82612949565b9050919050565b6129fa816129df565b82525050565b600081519050919050565b600082825260208201905092915050565b60005b83811015612a3a578082015181840152602081019050612a1f565b60008484015250505050565b6000601f19601f8301169050919050565b6000612a6282612a00565b612a6c8185612a0b565b9350612a7c818560208601612a1c565b612a8581612a46565b840191505092915050565b600061018082019050612aa66000830189612910565b612ab36020830188612910565b612ac0604083018761298a565b612acd60c083018661298a565b612adb6101408301856129f1565b818103610160830152612aee8184612a57565b9050979650505050505050565b600060c0820190508181036000830152612b158189612a57565b90508181036020830152612b298188612a57565b90508181036040830152612b3d8187612a57565b9050612b4c6060830186612910565b8181036080830152612b5e8185612a57565b9050612b6d60a0830184612910565b979650505050505050565b60006020820190508181036000830152612b928184612a57565b905092915050565b6000602082019050612baf60008301846129f1565b92915050565b612bbe816129df565b8114612bc957600080fd5b50565b600081359050612bdb81612bb5565b92915050565b600080fd5b600080fd5b7f4e487b7100000000000000000000000000000000000000000000000000000000600052604160045260246000fd5b612c2382612a46565b810181811067ffffffffffffffff82111715612c4257612c41612beb565b5b80604052505050565b6000612c55612899565b9050612c618282612c1a565b919050565b600067ffffffffffffffff821115612c8157612c80612beb565b5b612c8a82612a46565b9050602081019050919050565b82818337600083830152505050565b6000612cb9612cb484612c66565b612c4b565b905082815260208101848484011115612cd557612cd4612be6565b5b612ce0848285612c97565b509392505050565b600082601f830112612cfd57612cfc612be1565b5b8135612d0d848260208601612ca6565b91505092915050565b600080600080600060a08688031215612d3257612d316128a3565b5b6000612d40888289016128ce565b9550506020612d5188828901612bcc565b945050604086013567ffffffffffffffff811115612d7257612d716128a8565b5b612d7e88828901612ce8565b9350506060612d8f88828901612bcc565b9250506080612da0888289016128ce565b9150509295509295909350565b60008060408385031215612dc457612dc36128a3565b5b6000612dd2858286016128ce565b9250506020612de3858286016128ce565b9150509250929050565b7f4e487b7100000000000000000000000000000000000000000000000000000000600052603260045260246000fd5b7f4e487b7100000000000000000000000000000000000000000000000000000000600052602260045260246000fd5b60006002820490506001821680612e6357607f821691505b602082108103612e7657612e75612e1c565b5b50919050565b7f74616b6572206164647265737320697320696e636f7272656374000000000000600082015250565b6000612eb2601a83612a0b565b9150612ebd82612e7c565b602082019050919050565b60006020820190508181036000830152612ee181612ea5565b9050919050565b7f6775657373206973206e6f742073657420746f2031206f722032000000000000600082015250565b6000612f1e601a83612a0b565b9150612f2982612ee8565b602082019050919050565b60006020820190508181036000830152612f4d81612f11565b9050919050565b7f4e487b7100000000000000000000000000000000000000000000000000000000600052601160045260246000fd5b6000612f8e826128ad565b9150612f99836128ad565b9250828202612fa7816128ad565b91508282048414831517612fbe57612fbd612f54565b5b5092915050565b60008190508160005260206000209050919050565b60006020601f8301049050919050565b600082821b905092915050565b6000600883026130277fffffffffffffffffffffffffffffffffffffffffffffffffffffffffffffffff82612fea565b6130318683612fea565b95508019841693508086168417925050509392505050565b6000819050919050565b600061306e613069613064846128ad565b613049565b6128ad565b9050919050565b6000819050919050565b61308883613053565b61309c61309482613075565b848454612ff7565b825550505050565b600090565b6130b16130a4565b6130bc81848461307f565b505050565b5b818110156130e0576130d56000826130a9565b6001810190506130c2565b5050565b601f821115613125576130f681612fc5565b6130ff84612fda565b8101602085101561310e578190505b61312261311a85612fda565b8301826130c1565b50505b505050565b600082821c905092915050565b60006131486000198460080261312a565b1980831691505092915050565b60006131618383613137565b9150826002028217905092915050565b61317a82612a00565b67ffffffffffffffff81111561319357613192612beb565b5b61319d8254612e4b565b6131a88282856130e4565b600060209050601f8311600181146131db57600084156131c9578287015190505b6131d38582613155565b86555061323b565b601f1984166131e986612fc5565b60005b82811015613211578489015182556001820191506020850194506020810190506131ec565b8683101561322e578489015161322a601f891682613137565b8355505b6001600288020188555050505b505050505050565b60008154905061325281612e4b565b9050919050565b81810361326757505061333f565b61327082613243565b67ffffffffffffffff81111561328957613288612beb565b5b6132938254612e4b565b61329e8282856130e4565b6000601f8311600181146132cd57600084156132bb578287015490505b6132c58582613155565b865550613338565b601f1984166132db87612fc5565b96506132e686612fc5565b60005b8281101561330e578489015482556001820191506001850194506020810190506132e9565b8683101561332b5784890154613327601f891682613137565b8355505b6001600288020188555050505b5050505050505b565b600061334c826128ad565b9150613357836128ad565b925082820190508082111561336f5761336e612f54565b5b92915050565b7f62657420616d6f756e7420697320696e636f7272656374000000000000000000600082015250565b60006133ab601783612a0b565b91506133b682613375565b602082019050919050565b600060208201905081810360008301526133da8161339e565b9050919050565b7f6f7261636c65206164647265737320697320696e636f72726563740000000000600082015250565b6000613417601b83612a0b565b9150613422826133e1565b602082019050919050565b600060208201905081810360008301526134468161340a565b9050919050565b7f67616d6520737461747573206973206e6f7420636f6d706c6574650000000000600082015250565b6000613483601b83612a0b565b915061348e8261344d565b602082019050919050565b600060208201905081810360008301526134b281613476565b9050919050565b7f42657474657242657420737461747573206f6620656974686572206f7269676960008201527f6e61746f72206f722074616b6572206973206e6f742070656e64696e67000000602082015250565b6000613515603d83612a0b565b9150613520826134b9565b604082019050919050565b6000602082019050818103600083015261354481613508565b9050919050565b7f6f7574636f6d65206d7573742062652031206f72203200000000000000000000600082015250565b6000613581601683612a0b565b915061358c8261354b565b602082019050919050565b600060208201905081810360008301526135b081613574565b9050919050565b7f6d757374206265206f726967696e61746f722c2074616b65722c206f72206f7260008201527f61636c6520616464726573730000000000000000000000000000000000000000602082015250565b6000613613602c83612a0b565b915061361e826135b7565b604082019050919050565b6000602082019050818103600083015261364281613606565b9050919050565b600060608201905081810360008301526136638186612a57565b90506136726020830185612910565b61367f60408301846129f1565b949350505050565b600060808201905081810360008301526136a18187612a57565b90506136b06020830186612910565b6136bd60408301856129f1565b6136ca6060830184612910565b95945050505050565b600060808201905081810360008301526136ed8187612a57565b90506136fc6020830186612910565b6137096040830185612910565b61371660608301846129f1565b95945050505050565b7f4e487b7100000000000000000000000000000000000000000000000000000000600052605160045260246000fdfe4372656174696e67204265745b25735d2066726f6d202573207769746820616d6f756e7420257354616b696e67204265745b25735d2066726f6d202573207769746820616d6f756e7420257353657474696e67204265745b25735d206f7574636f6d6520746f2025732066726f6d2025734f726967696e61746f7220576f6e3a20506179696e67206f7574204265745b25735d20616d6f756e7420257320746f20257354616b657220576f6e3a20506179696e67206f7574204265745b25735d20616d6f756e7420257320746f2025734e6f6f6e6520576f6e3a20506179696e67206f7574204265745b25735d20616d6f756e7420257320746f202573a2646970667358221220cde159da425bb29972c41af8f852e577c3e3ca5f5985b60c121e3a85c9fff46c64736f6c63430008180033",
  "linkReferences": {},
  "deployedLinkReferences": {}
}