{
  "_format": "hh-sol-artifact-1",
  "contractName": "BlockBet",
  "sourceName": "contracts/BlockBet.sol",
  "abi": [
    {
      "inputs": [],
      "stateMutability": "nonpayable",
      "type": "constructor"
    },
    {
      "anonymous": false,
      "inputs": [],
      "name": "BetCreated",
      "type": "event"
    },
    {
      "inputs": [],
      "name": "arraySize",
      "outputs": [
        {
          "internalType": "uint256",
          "name": "",
          "type": "uint256"
        }
      ],
      "stateMutability": "view",
      "type": "function"
    },
    {
      "inputs": [],
      "name": "betInd",
      "outputs": [
        {
          "internalType": "uint256",
          "name": "",
          "type": "uint256"
        }
      ],
      "stateMutability": "view",
      "type": "function"
    },
    {
      "inputs": [
        {
          "internalType": "uint256",
          "name": "betID",
          "type": "uint256"
        },
        {
          "internalType": "address",
          "name": "sender",
          "type": "address"
        }
      ],
      "name": "checkPermissions",
      "outputs": [],
      "stateMutability": "view",
      "type": "function"
    },
    {
      "inputs": [
        {
          "internalType": "uint256",
          "name": "_guess",
          "type": "uint256"
        },
        {
          "internalType": "address",
          "name": "_oracle",
          "type": "address"
        },
        {
          "internalType": "string",
          "name": "_betDescription",
          "type": "string"
        },
        {
          "internalType": "address",
          "name": "_takerAddr",
          "type": "address"
        },
        {
          "internalType": "uint256",
          "name": "takerBetAmount",
          "type": "uint256"
        }
      ],
      "name": "createBet",
      "outputs": [],
      "stateMutability": "payable",
      "type": "function"
    },
    {
      "inputs": [
        {
          "internalType": "uint256",
          "name": "betID",
          "type": "uint256"
        }
      ],
      "name": "denyBet",
      "outputs": [],
      "stateMutability": "payable",
      "type": "function"
    },
    {
      "inputs": [
        {
          "internalType": "uint256",
          "name": "",
          "type": "uint256"
        }
      ],
      "name": "games",
      "outputs": [
        {
          "internalType": "uint256",
          "name": "outcome",
          "type": "uint256"
        },
        {
          "internalType": "uint256",
          "name": "status",
          "type": "uint256"
        },
        {
          "components": [
            {
              "internalType": "uint256",
              "name": "guess",
              "type": "uint256"
            },
            {
              "internalType": "address payable",
              "name": "addr",
              "type": "address"
            },
            {
              "internalType": "uint256",
              "name": "status",
              "type": "uint256"
            },
            {
              "internalType": "uint256",
              "name": "betAmount",
              "type": "uint256"
            }
          ],
          "internalType": "struct BlockBet.BetterBet",
          "name": "originator",
          "type": "tuple"
        },
        {
          "components": [
            {
              "internalType": "uint256",
              "name": "guess",
              "type": "uint256"
            },
            {
              "internalType": "address payable",
              "name": "addr",
              "type": "address"
            },
            {
              "internalType": "uint256",
              "name": "status",
              "type": "uint256"
            },
            {
              "internalType": "uint256",
              "name": "betAmount",
              "type": "uint256"
            }
          ],
          "internalType": "struct BlockBet.BetterBet",
          "name": "taker",
          "type": "tuple"
        },
        {
          "internalType": "address",
          "name": "oracle",
          "type": "address"
        },
        {
          "internalType": "string",
          "name": "betDescription",
          "type": "string"
        }
      ],
      "stateMutability": "view",
      "type": "function"
    },
    {
      "inputs": [],
      "name": "getBalance",
      "outputs": [
        {
          "internalType": "uint256",
          "name": "",
          "type": "uint256"
        }
      ],
      "stateMutability": "view",
      "type": "function"
    },
    {
      "inputs": [
        {
          "internalType": "uint256",
          "name": "betID",
          "type": "uint256"
        }
      ],
      "name": "getBetDescription",
      "outputs": [
        {
          "internalType": "string",
          "name": "",
          "type": "string"
        }
      ],
      "stateMutability": "view",
      "type": "function"
    },
    {
      "inputs": [],
      "name": "getBetInd",
      "outputs": [
        {
          "internalType": "uint256",
          "name": "",
          "type": "uint256"
        }
      ],
      "stateMutability": "view",
      "type": "function"
    },
    {
      "inputs": [
        {
          "internalType": "uint256",
          "name": "betID",
          "type": "uint256"
        }
      ],
      "name": "getBetOutcome",
      "outputs": [
        {
          "internalType": "string",
          "name": "description",
          "type": "string"
        },
        {
          "internalType": "string",
          "name": "outcome",
          "type": "string"
        },
        {
          "internalType": "string",
          "name": "originatorKey",
          "type": "string"
        },
        {
          "internalType": "uint256",
          "name": "originatorStatus",
          "type": "uint256"
        },
        {
          "internalType": "string",
          "name": "takerKey",
          "type": "string"
        },
        {
          "internalType": "uint256",
          "name": "takerStatus",
          "type": "uint256"
        }
      ],
      "stateMutability": "view",
      "type": "function"
    },
    {
      "inputs": [
        {
          "internalType": "uint256",
          "name": "betID",
          "type": "uint256"
        }
      ],
      "name": "getGameStatus",
      "outputs": [
        {
          "internalType": "uint256",
          "name": "",
          "type": "uint256"
        }
      ],
      "stateMutability": "view",
      "type": "function"
    },
    {
      "inputs": [
        {
          "internalType": "uint256",
          "name": "betID",
          "type": "uint256"
        }
      ],
      "name": "getOracleAddress",
      "outputs": [
        {
          "internalType": "address",
          "name": "",
          "type": "address"
        }
      ],
      "stateMutability": "view",
      "type": "function"
    },
    {
      "inputs": [
        {
          "internalType": "uint256",
          "name": "betID",
          "type": "uint256"
        }
      ],
      "name": "getOriginatorAddress",
      "outputs": [
        {
          "internalType": "address",
          "name": "",
          "type": "address"
        }
      ],
      "stateMutability": "view",
      "type": "function"
    },
    {
      "inputs": [
        {
          "internalType": "uint256",
          "name": "betID",
          "type": "uint256"
        }
      ],
      "name": "getOriginatorBetAmount",
      "outputs": [
        {
          "internalType": "uint256",
          "name": "",
          "type": "uint256"
        }
      ],
      "stateMutability": "view",
      "type": "function"
    },
    {
      "inputs": [
        {
          "internalType": "uint256",
          "name": "betID",
          "type": "uint256"
        }
      ],
      "name": "getOriginatorGuess",
      "outputs": [
        {
          "internalType": "uint256",
          "name": "",
          "type": "uint256"
        }
      ],
      "stateMutability": "view",
      "type": "function"
    },
    {
      "inputs": [
        {
          "internalType": "uint256",
          "name": "betID",
          "type": "uint256"
        }
      ],
      "name": "getOriginatorStatus",
      "outputs": [
        {
          "internalType": "uint256",
          "name": "",
          "type": "uint256"
        }
      ],
      "stateMutability": "view",
      "type": "function"
    },
    {
      "inputs": [
        {
          "internalType": "uint256",
          "name": "betID",
          "type": "uint256"
        }
      ],
      "name": "getOutcome",
      "outputs": [
        {
          "internalType": "uint256",
          "name": "",
          "type": "uint256"
        }
      ],
      "stateMutability": "view",
      "type": "function"
    },
    {
      "inputs": [
        {
          "internalType": "uint256",
          "name": "betID",
          "type": "uint256"
        }
      ],
      "name": "getTakerAddress",
      "outputs": [
        {
          "internalType": "address",
          "name": "",
          "type": "address"
        }
      ],
      "stateMutability": "view",
      "type": "function"
    },
    {
      "inputs": [
        {
          "internalType": "uint256",
          "name": "betID",
          "type": "uint256"
        }
      ],
      "name": "getTakerBetAmount",
      "outputs": [
        {
          "internalType": "uint256",
          "name": "",
          "type": "uint256"
        }
      ],
      "stateMutability": "view",
      "type": "function"
    },
    {
      "inputs": [
        {
          "internalType": "uint256",
          "name": "betID",
          "type": "uint256"
        }
      ],
      "name": "getTakerGuess",
      "outputs": [
        {
          "internalType": "uint256",
          "name": "",
          "type": "uint256"
        }
      ],
      "stateMutability": "view",
      "type": "function"
    },
    {
      "inputs": [
        {
          "internalType": "uint256",
          "name": "betID",
          "type": "uint256"
        }
      ],
      "name": "getTakerStatus",
      "outputs": [
        {
          "internalType": "uint256",
          "name": "",
          "type": "uint256"
        }
      ],
      "stateMutability": "view",
      "type": "function"
    },
    {
      "inputs": [
        {
          "internalType": "uint256",
          "name": "betID",
          "type": "uint256"
        }
      ],
      "name": "nullBet",
      "outputs": [],
      "stateMutability": "payable",
      "type": "function"
    },
    {
      "inputs": [],
      "name": "owner",
      "outputs": [
        {
          "internalType": "address",
          "name": "",
          "type": "address"
        }
      ],
      "stateMutability": "view",
      "type": "function"
    },
    {
      "inputs": [
        {
          "internalType": "uint256",
          "name": "betID",
          "type": "uint256"
        }
      ],
      "name": "payout",
      "outputs": [],
      "stateMutability": "payable",
      "type": "function"
    },
    {
      "inputs": [
        {
          "internalType": "uint256",
          "name": "betID",
          "type": "uint256"
        },
        {
          "internalType": "uint256",
          "name": "_outcome",
          "type": "uint256"
        }
      ],
      "name": "setBetOutcome",
      "outputs": [],
      "stateMutability": "nonpayable",
      "type": "function"
    },
    {
      "inputs": [
        {
          "internalType": "uint256",
          "name": "betID",
          "type": "uint256"
        }
      ],
      "name": "takeBet",
      "outputs": [],
      "stateMutability": "payable",
      "type": "function"
    }
  ],
  "bytecode": "0x6080604052600060015534801561001557600080fd5b50336000806101000a81548173ffffffffffffffffffffffffffffffffffffffff021916908373ffffffffffffffffffffffffffffffffffffffff160217905550613940806100656000396000f3fe6080604052600436106101815760003560e01c80638a8263e2116100d1578063e0f6ff431161008a578063e59286d811610064578063e59286d8146105ee578063ef4be80014610619578063f373ae3114610656578063f67feccc1461067257610181565b8063e0f6ff431461056a578063e115234314610595578063e1feadfd146105b157610181565b80638a8263e2146104505780638da5cb5b1461046c5780639217c43814610497578063aa8e7326146104d4578063c511a07414610511578063cd5793351461052d57610181565b80633145b4961161013e5780634af8e1a4116101185780634af8e1a41461036e5780636d4f45421461039957806371c57ca2146103d657806381d335fe1461041357610181565b80633145b496146102cb578063480729e01461030857806348f1b5b91461033157610181565b80630f1bf45414610186578063117a5b90146101c357806312065fe01461020557806318aea0c8146102305780631a421ad214610272578063294ba4b41461028e575b600080fd5b34801561019257600080fd5b506101ad60048036038101906101a89190612962565b61069b565b6040516101ba919061299e565b60405180910390f35b3480156101cf57600080fd5b506101ea60048036038101906101e59190612962565b6106c2565b6040516101fc96959493929190612b0f565b60405180910390f35b34801561021157600080fd5b5061021a6108aa565b604051610227919061299e565b60405180910390f35b34801561023c57600080fd5b5061025760048036038101906102529190612962565b6108b7565b60405161026996959493929190612b7a565b60405180910390f35b61028c60048036038101906102879190612962565b610bda565b005b34801561029a57600080fd5b506102b560048036038101906102b09190612962565b610d95565b6040516102c29190612bf7565b60405180910390f35b3480156102d757600080fd5b506102f260048036038101906102ed9190612962565b610e4e565b6040516102ff9190612c19565b60405180910390f35b34801561031457600080fd5b5061032f600480360381019061032a9190612c60565b610e98565b005b34801561033d57600080fd5b5061035860048036038101906103539190612962565b611033565b604051610365919061299e565b60405180910390f35b34801561037a57600080fd5b50610383611067565b604051610390919061299e565b60405180910390f35b3480156103a557600080fd5b506103c060048036038101906103bb9190612962565b611071565b6040516103cd919061299e565b60405180910390f35b3480156103e257600080fd5b506103fd60048036038101906103f89190612962565b6110a5565b60405161040a919061299e565b60405180910390f35b34801561041f57600080fd5b5061043a60048036038101906104359190612962565b6110d9565b604051610447919061299e565b60405180910390f35b61046a60048036038101906104659190612dd5565b61110d565b005b34801561047857600080fd5b50610481611632565b60405161048e9190612c19565b60405180910390f35b3480156104a357600080fd5b506104be60048036038101906104b99190612962565b611656565b6040516104cb9190612c19565b60405180910390f35b3480156104e057600080fd5b506104fb60048036038101906104f69190612962565b61169d565b6040516105089190612c19565b60405180910390f35b61052b60048036038101906105269190612962565b6116e7565b005b34801561053957600080fd5b50610554600480360381019061054f9190612962565b611936565b604051610561919061299e565b60405180910390f35b34801561057657600080fd5b5061057f611967565b60405161058c919061299e565b60405180910390f35b6105af60048036038101906105aa9190612962565b61196e565b005b3480156105bd57600080fd5b506105d860048036038101906105d39190612962565b612143565b6040516105e5919061299e565b60405180910390f35b3480156105fa57600080fd5b50610603612177565b604051610610919061299e565b60405180910390f35b34801561062557600080fd5b50610640600480360381019061063b9190612962565b61217d565b60405161064d919061299e565b60405180910390f35b610670600480360381019061066b9190612962565b6121b1565b005b34801561067e57600080fd5b5061069960048036038101906106949190612e6c565b6124f0565b005b60006002826201000081106106b3576106b2612eac565b5b600c0201600101549050919050565b6002816201000081106106d457600080fd5b600c020160009150905080600001549080600101549080600201604051806080016040529081600082015481526020016001820160009054906101000a900473ffffffffffffffffffffffffffffffffffffffff1673ffffffffffffffffffffffffffffffffffffffff1673ffffffffffffffffffffffffffffffffffffffff168152602001600282015481526020016003820154815250509080600601604051806080016040529081600082015481526020016001820160009054906101000a900473ffffffffffffffffffffffffffffffffffffffff1673ffffffffffffffffffffffffffffffffffffffff1673ffffffffffffffffffffffffffffffffffffffff168152602001600282015481526020016003820154815250509080600a0160009054906101000a900473ffffffffffffffffffffffffffffffffffffffff169080600b01805461082790612f0a565b80601f016020809104026020016040519081016040528092919081815260200182805461085390612f0a565b80156108a05780601f10610875576101008083540402835291602001916108a0565b820191906000526020600020905b81548152906001019060200180831161088357829003601f168201915b5050505050905086565b6000804790508091505090565b606080606060006060600060016002886201000081106108da576108d9612eac565b5b600c02016002016002015414801561091157506002808862010000811061090457610903612eac565b5b600c020160060160020154145b15610953576040518060400160405280601e81526020017f426574206f726967696e61746f722068617320776f6e207468652062657400008152509550610a1e565b6002808862010000811061096a57610969612eac565b5b600c0201600201600201541480156109a25750600160028862010000811061099557610994612eac565b5b600c020160060160020154145b156109e4576040518060400160405280601981526020017f4265742074616b65722068617320776f6e2074686520626574000000000000008152509550610a1d565b6040518060400160405280601381526020017f556e6b6e6f776e20426574204f7574636f6d650000000000000000000000000081525095505b5b6001600288620100008110610a3657610a35612eac565b5b600c02016000015403610a80576040518060400160405280600481526020017f54727565000000000000000000000000000000000000000000000000000000008152509450610b1b565b60028088620100008110610a9757610a96612eac565b5b600c02016000015403610ae1576040518060400160405280600581526020017f46616c73650000000000000000000000000000000000000000000000000000008152509450610b1a565b6040518060400160405280601481526020017f556e6b6e6f776e2047616d65204f7574636f6d6500000000000000000000000081525094505b5b6040518060400160405280600a81526020017f6f726967696e61746f72000000000000000000000000000000000000000000008152509350600287620100008110610b6957610b68612eac565b5b600c02016002016002015492506040518060400160405280600581526020017f74616b65720000000000000000000000000000000000000000000000000000008152509150600287620100008110610bc457610bc3612eac565b5b600c020160060160020154905091939550919395565b600281620100008110610bf057610bef612eac565b5b600c020160060160010160009054906101000a900473ffffffffffffffffffffffffffffffffffffffff1673ffffffffffffffffffffffffffffffffffffffff163373ffffffffffffffffffffffffffffffffffffffff1614610c88576040517f08c379a0000000000000000000000000000000000000000000000000000000008152600401610c7f90612f87565b60405180910390fd5b610cc86040518060400160405280601781526020017f44656e79696e67204265745b25735d2066726f6d20257300000000000000000081525082336126e5565b6000600282620100008110610ce057610cdf612eac565b5b600c020160010181905550600281620100008110610d0157610d00612eac565b5b600c020160020160010160009054906101000a900473ffffffffffffffffffffffffffffffffffffffff1673ffffffffffffffffffffffffffffffffffffffff166108fc600283620100008110610d5b57610d5a612eac565b5b600c0201600201600301549081150290604051600060405180830381858888f19350505050158015610d91573d6000803e3d6000fd5b5050565b6060610da18233610e98565b600282620100008110610db757610db6612eac565b5b600c0201600b018054610dc990612f0a565b80601f0160208091040260200160405190810160405280929190818152602001828054610df590612f0a565b8015610e425780601f10610e1757610100808354040283529160200191610e42565b820191906000526020600020905b815481529060010190602001808311610e2557829003601f168201915b50505050509050919050565b6000600282620100008110610e6657610e65612eac565b5b600c020160060160010160009054906101000a900473ffffffffffffffffffffffffffffffffffffffff169050919050565b600282620100008110610eae57610ead612eac565b5b600c020160020160010160009054906101000a900473ffffffffffffffffffffffffffffffffffffffff1673ffffffffffffffffffffffffffffffffffffffff168173ffffffffffffffffffffffffffffffffffffffff161480610f7d5750600282620100008110610f2357610f22612eac565b5b600c020160060160010160009054906101000a900473ffffffffffffffffffffffffffffffffffffffff1673ffffffffffffffffffffffffffffffffffffffff168173ffffffffffffffffffffffffffffffffffffffff16145b80610ff05750600282620100008110610f9957610f98612eac565b5b600c0201600a0160009054906101000a900473ffffffffffffffffffffffffffffffffffffffff1673ffffffffffffffffffffffffffffffffffffffff168173ffffffffffffffffffffffffffffffffffffffff16145b61102f576040517f08c379a000000000000000000000000000000000000000000000000000000000815260040161102690613019565b60405180910390fd5b5050565b600061103f8233610e98565b60028262010000811061105557611054612eac565b5b600c0201600201600001549050919050565b6000600154905090565b600061107d8233610e98565b60028262010000811061109357611092612eac565b5b600c0201600601600301549050919050565b60006110b18233610e98565b6002826201000081106110c7576110c6612eac565b5b600c0201600601600201549050919050565b60006110e58233610e98565b6002826201000081106110fb576110fa612eac565b5b600c0201600601600001549050919050565b600185148061111c5750600285145b61115b576040517f08c379a000000000000000000000000000000000000000000000000000000000815260040161115290613085565b60405180910390fd5b61118160405180606001604052806027815260200161380e602791396001543334612784565b600060018261119091906130d4565b90506040518060c00160405280600081526020016001815260200160405180608001604052808981526020013373ffffffffffffffffffffffffffffffffffffffff168152602001600381526020013481525081526020016040518060800160405280600081526020018673ffffffffffffffffffffffffffffffffffffffff168152602001600481526020018481525081526020018673ffffffffffffffffffffffffffffffffffffffff16815260200185815250620c000260008201518160000155602082015181600101556040820151816002016000820151816000015560208201518160010160006101000a81548173ffffffffffffffffffffffffffffffffffffffff021916908373ffffffffffffffffffffffffffffffffffffffff160217905550604082015181600201556060820151816003015550506060820151816006016000820151816000015560208201518160010160006101000a81548173ffffffffffffffffffffffffffffffffffffffff021916908373ffffffffffffffffffffffffffffffffffffffff16021790555060408201518160020155606082015181600301555050608082015181600a0160006101000a81548173ffffffffffffffffffffffffffffffffffffffff021916908373ffffffffffffffffffffffffffffffffffffffff16021790555060a082015181600b01908161139a91906132c2565b5090505060405180608001604052808781526020013373ffffffffffffffffffffffffffffffffffffffff1681526020016003815260200134815250620c00026002016000820151816000015560208201518160010160006101000a81548173ffffffffffffffffffffffffffffffffffffffff021916908373ffffffffffffffffffffffffffffffffffffffff1602179055506040820151816002015560608201518160030155905050620c0002600260015462010000811061146157611460612eac565b5b600c020160008201548160000155600182015481600101556002820181600201600082015481600001556001820160009054906101000a900473ffffffffffffffffffffffffffffffffffffffff168160010160006101000a81548173ffffffffffffffffffffffffffffffffffffffff021916908373ffffffffffffffffffffffffffffffffffffffff160217905550600282015481600201556003820154816003015550506006820181600601600082015481600001556001820160009054906101000a900473ffffffffffffffffffffffffffffffffffffffff168160010160006101000a81548173ffffffffffffffffffffffffffffffffffffffff021916908373ffffffffffffffffffffffffffffffffffffffff16021790555060028201548160020155600382015481600301555050600a820160009054906101000a900473ffffffffffffffffffffffffffffffffffffffff1681600a0160006101000a81548173ffffffffffffffffffffffffffffffffffffffff021916908373ffffffffffffffffffffffffffffffffffffffff160217905550600b820181600b01908161161291906133aa565b50905050600180546116249190613492565b600181905550505050505050565b60008054906101000a900473ffffffffffffffffffffffffffffffffffffffff1681565b600060028262010000811061166e5761166d612eac565b5b600c0201600a0160009054906101000a900473ffffffffffffffffffffffffffffffffffffffff169050919050565b60006002826201000081106116b5576116b4612eac565b5b600c020160020160010160009054906101000a900473ffffffffffffffffffffffffffffffffffffffff169050919050565b6002816201000081106116fd576116fc612eac565b5b600c0201600601600301543414611749576040517f08c379a000000000000000000000000000000000000000000000000000000000815260040161174090613512565b60405180910390fd5b60028162010000811061175f5761175e612eac565b5b600c020160060160010160009054906101000a900473ffffffffffffffffffffffffffffffffffffffff1673ffffffffffffffffffffffffffffffffffffffff163373ffffffffffffffffffffffffffffffffffffffff16146117f7576040517f08c379a00000000000000000000000000000000000000000000000000000000081526004016117ee90612f87565b60405180910390fd5b61181b60405180606001604052806025815260200161383560259139823334612784565b6002808262010000811061183257611831612eac565b5b600c0201600101819055506000600160028362010000811061185757611856612eac565b5b600c020160020160000154036118705760029050611875565b600190505b60405180608001604052808281526020013373ffffffffffffffffffffffffffffffffffffffff16815260200160038152602001348152506002836201000081106118c3576118c2612eac565b5b600c02016006016000820151816000015560208201518160010160006101000a81548173ffffffffffffffffffffffffffffffffffffffff021916908373ffffffffffffffffffffffffffffffffffffffff16021790555060408201518160020155606082015181600301559050505050565b60006119428233610e98565b60028262010000811061195857611957612eac565b5b600c0201600001549050919050565b6201000081565b60028162010000811061198457611983612eac565b5b600c0201600a0160009054906101000a900473ffffffffffffffffffffffffffffffffffffffff1673ffffffffffffffffffffffffffffffffffffffff163373ffffffffffffffffffffffffffffffffffffffff1614611a19576040517f08c379a0000000000000000000000000000000000000000000000000000000008152600401611a109061357e565b60405180910390fd5b6003600282620100008110611a3157611a30612eac565b5b600c02016001015414611a79576040517f08c379a0000000000000000000000000000000000000000000000000000000008152600401611a70906135ea565b60405180910390fd5b600281620100008110611a8f57611a8e612eac565b5b600c020160000154600282620100008110611aad57611aac612eac565b5b600c020160020160000154148015611b025750600281620100008110611ad657611ad5612eac565b5b600c020160000154600282620100008110611af457611af3612eac565b5b600c02016006016000015414155b15611c93576001600282620100008110611b1f57611b1e612eac565b5b600c02016002016002018190555060028082620100008110611b4457611b43612eac565b5b600c0201600601600201819055506000600282620100008110611b6a57611b69612eac565b5b600c020160060160030154600283620100008110611b8b57611b8a612eac565b5b600c020160020160030154611ba09190613492565b9050600282620100008110611bb857611bb7612eac565b5b600c020160020160010160009054906101000a900473ffffffffffffffffffffffffffffffffffffffff1673ffffffffffffffffffffffffffffffffffffffff166108fc829081150290604051600060405180830381858888f19350505050158015611c28573d6000803e3d6000fd5b50611c8d60405180606001604052806032815260200161387f603291398383600286620100008110611c5d57611c5c612eac565b5b600c020160020160010160009054906101000a900473ffffffffffffffffffffffffffffffffffffffff16612826565b50612140565b600281620100008110611ca957611ca8612eac565b5b600c020160000154600282620100008110611cc757611cc6612eac565b5b600c02016002016000015414158015611d1c5750600281620100008110611cf157611cf0612eac565b5b600c020160000154600282620100008110611d0f57611d0e612eac565b5b600c020160060160000154145b15611ead5760028082620100008110611d3857611d37612eac565b5b600c0201600201600201819055506001600282620100008110611d5e57611d5d612eac565b5b600c0201600601600201819055506000600282620100008110611d8457611d83612eac565b5b600c020160060160030154600283620100008110611da557611da4612eac565b5b600c020160020160030154611dba9190613492565b9050600282620100008110611dd257611dd1612eac565b5b600c020160060160010160009054906101000a900473ffffffffffffffffffffffffffffffffffffffff1673ffffffffffffffffffffffffffffffffffffffff166108fc829081150290604051600060405180830381858888f19350505050158015611e42573d6000803e3d6000fd5b50611ea76040518060600160405280602d81526020016138b1602d91398383600286620100008110611e7757611e76612eac565b5b600c020160060160010160009054906101000a900473ffffffffffffffffffffffffffffffffffffffff16612826565b5061213f565b6005600282620100008110611ec557611ec4612eac565b5b600c0201600201600201819055506005600282620100008110611eeb57611eea612eac565b5b600c0201600601600201819055506000600282620100008110611f1157611f10612eac565b5b600c0201600101819055506000600282620100008110611f3457611f33612eac565b5b600c02016002016003015490506000600283620100008110611f5957611f58612eac565b5b600c0201600601600301549050600283620100008110611f7c57611f7b612eac565b5b600c020160020160010160009054906101000a900473ffffffffffffffffffffffffffffffffffffffff1673ffffffffffffffffffffffffffffffffffffffff166108fc839081150290604051600060405180830381858888f19350505050158015611fec573d6000803e3d6000fd5b5060028362010000811061200357612002612eac565b5b600c020160060160010160009054906101000a900473ffffffffffffffffffffffffffffffffffffffff1673ffffffffffffffffffffffffffffffffffffffff166108fc829081150290604051600060405180830381858888f19350505050158015612073573d6000803e3d6000fd5b506120d86040518060600160405280602d81526020016138de602d913984846002876201000081106120a8576120a7612eac565b5b600c020160060160010160009054906101000a900473ffffffffffffffffffffffffffffffffffffffff16612826565b61213c6040518060600160405280602d81526020016138de602d9139848360028762010000811061210c5761210b612eac565b5b600c020160060160010160009054906101000a900473ffffffffffffffffffffffffffffffffffffffff16612826565b50505b5b50565b600061214f8233610e98565b60028262010000811061216557612164612eac565b5b600c0201600201600301549050919050565b60015481565b60006121898233610e98565b60028262010000811061219f5761219e612eac565b5b600c0201600201600201549050919050565b6002816201000081106121c7576121c6612eac565b5b600c0201600a0160009054906101000a900473ffffffffffffffffffffffffffffffffffffffff1673ffffffffffffffffffffffffffffffffffffffff163373ffffffffffffffffffffffffffffffffffffffff161461225c576040517f08c379a00000000000000000000000000000000000000000000000000000000081526004016122539061357e565b60405180910390fd5b600560028262010000811061227457612273612eac565b5b600c020160020160020181905550600560028262010000811061229a57612299612eac565b5b600c02016006016002018190555060006002826201000081106122c0576122bf612eac565b5b600c02016001018190555060006002826201000081106122e3576122e2612eac565b5b600c0201600201600301549050600060028362010000811061230857612307612eac565b5b600c020160060160030154905060028362010000811061232b5761232a612eac565b5b600c020160020160010160009054906101000a900473ffffffffffffffffffffffffffffffffffffffff1673ffffffffffffffffffffffffffffffffffffffff166108fc839081150290604051600060405180830381858888f1935050505015801561239b573d6000803e3d6000fd5b506002836201000081106123b2576123b1612eac565b5b600c020160060160010160009054906101000a900473ffffffffffffffffffffffffffffffffffffffff1673ffffffffffffffffffffffffffffffffffffffff166108fc829081150290604051600060405180830381858888f19350505050158015612422573d6000803e3d6000fd5b506124876040518060600160405280602d81526020016138de602d9139848460028762010000811061245757612456612eac565b5b600c020160060160010160009054906101000a900473ffffffffffffffffffffffffffffffffffffffff16612826565b6124eb6040518060600160405280602d81526020016138de602d913984836002876201000081106124bb576124ba612eac565b5b600c020160060160010160009054906101000a900473ffffffffffffffffffffffffffffffffffffffff16612826565b505050565b60028262010000811061250657612505612eac565b5b600c0201600a0160009054906101000a900473ffffffffffffffffffffffffffffffffffffffff1673ffffffffffffffffffffffffffffffffffffffff163373ffffffffffffffffffffffffffffffffffffffff161461259b576040517f08c379a00000000000000000000000000000000000000000000000000000000081526004016125929061357e565b60405180910390fd5b60036002836201000081106125b3576125b2612eac565b5b600c0201600201600201541480156125eb575060036002836201000081106125de576125dd612eac565b5b600c020160060160020154145b61262a576040517f08c379a00000000000000000000000000000000000000000000000000000000081526004016126219061367c565b60405180910390fd5b60018114806126395750600281145b612678576040517f08c379a000000000000000000000000000000000000000000000000000000000815260040161266f906136e8565b60405180910390fd5b61269c60405180606001604052806025815260200161385a60259139838333612826565b806002836201000081106126b3576126b2612eac565b5b600c02016000018190555060036002836201000081106126d6576126d5612eac565b5b600c0201600101819055505050565b61277f8383836040516024016126fd93929190613708565b6040516020818303038152906040527f1c7ec448000000000000000000000000000000000000000000000000000000007bffffffffffffffffffffffffffffffffffffffffffffffffffffffff19166020820180517bffffffffffffffffffffffffffffffffffffffffffffffffffffffff83818316178352505050506128c8565b505050565b6128208484848460405160240161279e9493929190613746565b6040516020818303038152906040527f4f04fdc6000000000000000000000000000000000000000000000000000000007bffffffffffffffffffffffffffffffffffffffffffffffffffffffff19166020820180517bffffffffffffffffffffffffffffffffffffffffffffffffffffffff83818316178352505050506128c8565b50505050565b6128c2848484846040516024016128409493929190613792565b6040516020818303038152906040527fe21de278000000000000000000000000000000000000000000000000000000007bffffffffffffffffffffffffffffffffffffffffffffffffffffffff19166020820180517bffffffffffffffffffffffffffffffffffffffffffffffffffffffff83818316178352505050506128c8565b50505050565b6128df816128d76128e2612903565b63ffffffff16565b50565b60006a636f6e736f6c652e6c6f679050600080835160208501845afa505050565b61290e819050919050565b6129166137de565b565b6000604051905090565b600080fd5b600080fd5b6000819050919050565b61293f8161292c565b811461294a57600080fd5b50565b60008135905061295c81612936565b92915050565b60006020828403121561297857612977612922565b5b60006129868482850161294d565b91505092915050565b6129988161292c565b82525050565b60006020820190506129b3600083018461298f565b92915050565b6129c28161292c565b82525050565b600073ffffffffffffffffffffffffffffffffffffffff82169050919050565b60006129f3826129c8565b9050919050565b612a03816129e8565b82525050565b608082016000820151612a1f60008501826129b9565b506020820151612a3260208501826129fa565b506040820151612a4560408501826129b9565b506060820151612a5860608501826129b9565b50505050565b6000612a69826129c8565b9050919050565b612a7981612a5e565b82525050565b600081519050919050565b600082825260208201905092915050565b60005b83811015612ab9578082015181840152602081019050612a9e565b60008484015250505050565b6000601f19601f8301169050919050565b6000612ae182612a7f565b612aeb8185612a8a565b9350612afb818560208601612a9b565b612b0481612ac5565b840191505092915050565b600061018082019050612b25600083018961298f565b612b32602083018861298f565b612b3f6040830187612a09565b612b4c60c0830186612a09565b612b5a610140830185612a70565b818103610160830152612b6d8184612ad6565b9050979650505050505050565b600060c0820190508181036000830152612b948189612ad6565b90508181036020830152612ba88188612ad6565b90508181036040830152612bbc8187612ad6565b9050612bcb606083018661298f565b8181036080830152612bdd8185612ad6565b9050612bec60a083018461298f565b979650505050505050565b60006020820190508181036000830152612c118184612ad6565b905092915050565b6000602082019050612c2e6000830184612a70565b92915050565b612c3d81612a5e565b8114612c4857600080fd5b50565b600081359050612c5a81612c34565b92915050565b60008060408385031215612c7757612c76612922565b5b6000612c858582860161294d565b9250506020612c9685828601612c4b565b9150509250929050565b600080fd5b600080fd5b7f4e487b7100000000000000000000000000000000000000000000000000000000600052604160045260246000fd5b612ce282612ac5565b810181811067ffffffffffffffff82111715612d0157612d00612caa565b5b80604052505050565b6000612d14612918565b9050612d208282612cd9565b919050565b600067ffffffffffffffff821115612d4057612d3f612caa565b5b612d4982612ac5565b9050602081019050919050565b82818337600083830152505050565b6000612d78612d7384612d25565b612d0a565b905082815260208101848484011115612d9457612d93612ca5565b5b612d9f848285612d56565b509392505050565b600082601f830112612dbc57612dbb612ca0565b5b8135612dcc848260208601612d65565b91505092915050565b600080600080600060a08688031215612df157612df0612922565b5b6000612dff8882890161294d565b9550506020612e1088828901612c4b565b945050604086013567ffffffffffffffff811115612e3157612e30612927565b5b612e3d88828901612da7565b9350506060612e4e88828901612c4b565b9250506080612e5f8882890161294d565b9150509295509295909350565b60008060408385031215612e8357612e82612922565b5b6000612e918582860161294d565b9250506020612ea28582860161294d565b9150509250929050565b7f4e487b7100000000000000000000000000000000000000000000000000000000600052603260045260246000fd5b7f4e487b7100000000000000000000000000000000000000000000000000000000600052602260045260246000fd5b60006002820490506001821680612f2257607f821691505b602082108103612f3557612f34612edb565b5b50919050565b7f74616b6572206164647265737320697320696e636f7272656374000000000000600082015250565b6000612f71601a83612a8a565b9150612f7c82612f3b565b602082019050919050565b60006020820190508181036000830152612fa081612f64565b9050919050565b7f6d757374206265206f726967696e61746f722c2074616b65722c206f72206f7260008201527f61636c6520616464726573730000000000000000000000000000000000000000602082015250565b6000613003602c83612a8a565b915061300e82612fa7565b604082019050919050565b6000602082019050818103600083015261303281612ff6565b9050919050565b7f6775657373206973206e6f742073657420746f2031206f722032000000000000600082015250565b600061306f601a83612a8a565b915061307a82613039565b602082019050919050565b6000602082019050818103600083015261309e81613062565b9050919050565b7f4e487b7100000000000000000000000000000000000000000000000000000000600052601160045260246000fd5b60006130df8261292c565b91506130ea8361292c565b92508282026130f88161292c565b9150828204841483151761310f5761310e6130a5565b5b5092915050565b60008190508160005260206000209050919050565b60006020601f8301049050919050565b600082821b905092915050565b6000600883026131787fffffffffffffffffffffffffffffffffffffffffffffffffffffffffffffffff8261313b565b613182868361313b565b95508019841693508086168417925050509392505050565b6000819050919050565b60006131bf6131ba6131b58461292c565b61319a565b61292c565b9050919050565b6000819050919050565b6131d9836131a4565b6131ed6131e5826131c6565b848454613148565b825550505050565b600090565b6132026131f5565b61320d8184846131d0565b505050565b5b81811015613231576132266000826131fa565b600181019050613213565b5050565b601f8211156132765761324781613116565b6132508461312b565b8101602085101561325f578190505b61327361326b8561312b565b830182613212565b50505b505050565b600082821c905092915050565b60006132996000198460080261327b565b1980831691505092915050565b60006132b28383613288565b9150826002028217905092915050565b6132cb82612a7f565b67ffffffffffffffff8111156132e4576132e3612caa565b5b6132ee8254612f0a565b6132f9828285613235565b600060209050601f83116001811461332c576000841561331a578287015190505b61332485826132a6565b86555061338c565b601f19841661333a86613116565b60005b828110156133625784890151825560018201915060208501945060208101905061333d565b8683101561337f578489015161337b601f891682613288565b8355505b6001600288020188555050505b505050505050565b6000815490506133a381612f0a565b9050919050565b8181036133b8575050613490565b6133c182613394565b67ffffffffffffffff8111156133da576133d9612caa565b5b6133e48254612f0a565b6133ef828285613235565b6000601f83116001811461341e576000841561340c578287015490505b61341685826132a6565b865550613489565b601f19841661342c87613116565b965061343786613116565b60005b8281101561345f5784890154825560018201915060018501945060208101905061343a565b8683101561347c5784890154613478601f891682613288565b8355505b6001600288020188555050505b5050505050505b565b600061349d8261292c565b91506134a88361292c565b92508282019050808211156134c0576134bf6130a5565b5b92915050565b7f62657420616d6f756e7420697320696e636f7272656374000000000000000000600082015250565b60006134fc601783612a8a565b9150613507826134c6565b602082019050919050565b6000602082019050818103600083015261352b816134ef565b9050919050565b7f6f7261636c65206164647265737320697320696e636f72726563740000000000600082015250565b6000613568601b83612a8a565b915061357382613532565b602082019050919050565b600060208201905081810360008301526135978161355b565b9050919050565b7f67616d6520737461747573206973206e6f7420636f6d706c6574650000000000600082015250565b60006135d4601b83612a8a565b91506135df8261359e565b602082019050919050565b60006020820190508181036000830152613603816135c7565b9050919050565b7f42657474657242657420737461747573206f6620656974686572206f7269676960008201527f6e61746f72206f722074616b6572206973206e6f742070656e64696e67000000602082015250565b6000613666603d83612a8a565b91506136718261360a565b604082019050919050565b6000602082019050818103600083015261369581613659565b9050919050565b7f6f7574636f6d65206d7573742062652031206f72203200000000000000000000600082015250565b60006136d2601683612a8a565b91506136dd8261369c565b602082019050919050565b60006020820190508181036000830152613701816136c5565b9050919050565b600060608201905081810360008301526137228186612ad6565b9050613731602083018561298f565b61373e6040830184612a70565b949350505050565b600060808201905081810360008301526137608187612ad6565b905061376f602083018661298f565b61377c6040830185612a70565b613789606083018461298f565b95945050505050565b600060808201905081810360008301526137ac8187612ad6565b90506137bb602083018661298f565b6137c8604083018561298f565b6137d56060830184612a70565b95945050505050565b7f4e487b7100000000000000000000000000000000000000000000000000000000600052605160045260246000fdfe4372656174696e67204265745b25735d2066726f6d202573207769746820616d6f756e7420257354616b696e67204265745b25735d2066726f6d202573207769746820616d6f756e7420257353657474696e67204265745b25735d206f7574636f6d6520746f2025732066726f6d2025734f726967696e61746f7220576f6e3a20506179696e67206f7574204265745b25735d20616d6f756e7420257320746f20257354616b657220576f6e3a20506179696e67206f7574204265745b25735d20616d6f756e7420257320746f2025734e6f6f6e6520576f6e3a20506179696e67206f7574204265745b25735d20616d6f756e7420257320746f202573a2646970667358221220736ae3517811cb04f29bdaade9c086dea3042a4d9ecf7b4447e63db830d609b564736f6c63430008180033",
  "linkReferences": {},
  "deployedLinkReferences": {}
}