{
  "_format": "hh-sol-artifact-1",
  "contractName": "BlockBet",
  "sourceName": "contracts/BlockBet.sol",
  "abi": [
    {
      "inputs": [],
      "stateMutability": "nonpayable",
      "type": "constructor"
    },
    {
      "anonymous": false,
      "inputs": [],
      "name": "BetCreated",
      "type": "event"
    },
    {
      "inputs": [],
      "name": "arraySize",
      "outputs": [
        {
          "internalType": "uint256",
          "name": "",
          "type": "uint256"
        }
      ],
      "stateMutability": "view",
      "type": "function"
    },
    {
      "inputs": [],
      "name": "betInd",
      "outputs": [
        {
          "internalType": "uint256",
          "name": "",
          "type": "uint256"
        }
      ],
      "stateMutability": "view",
      "type": "function"
    },
    {
      "inputs": [
        {
          "internalType": "uint256",
          "name": "_guess",
          "type": "uint256"
        },
        {
          "internalType": "address",
          "name": "_oracle",
          "type": "address"
        },
        {
          "internalType": "string",
          "name": "_betDescription",
          "type": "string"
        },
        {
          "internalType": "address",
          "name": "_takerAddr",
          "type": "address"
        },
        {
          "internalType": "uint256",
          "name": "takerBetAmount",
          "type": "uint256"
        }
      ],
      "name": "createBet",
      "outputs": [],
      "stateMutability": "payable",
      "type": "function"
    },
    {
      "inputs": [
        {
          "internalType": "uint256",
          "name": "betID",
          "type": "uint256"
        }
      ],
      "name": "denyBet",
      "outputs": [],
      "stateMutability": "payable",
      "type": "function"
    },
    {
      "inputs": [
        {
          "internalType": "uint256",
          "name": "",
          "type": "uint256"
        }
      ],
      "name": "games",
      "outputs": [
        {
          "internalType": "uint256",
          "name": "outcome",
          "type": "uint256"
        },
        {
          "internalType": "uint256",
          "name": "status",
          "type": "uint256"
        },
        {
          "components": [
            {
              "internalType": "uint256",
              "name": "guess",
              "type": "uint256"
            },
            {
              "internalType": "address payable",
              "name": "addr",
              "type": "address"
            },
            {
              "internalType": "uint256",
              "name": "status",
              "type": "uint256"
            },
            {
              "internalType": "uint256",
              "name": "betAmount",
              "type": "uint256"
            }
          ],
          "internalType": "struct BlockBet.BetterBet",
          "name": "originator",
          "type": "tuple"
        },
        {
          "components": [
            {
              "internalType": "uint256",
              "name": "guess",
              "type": "uint256"
            },
            {
              "internalType": "address payable",
              "name": "addr",
              "type": "address"
            },
            {
              "internalType": "uint256",
              "name": "status",
              "type": "uint256"
            },
            {
              "internalType": "uint256",
              "name": "betAmount",
              "type": "uint256"
            }
          ],
          "internalType": "struct BlockBet.BetterBet",
          "name": "taker",
          "type": "tuple"
        },
        {
          "internalType": "address",
          "name": "oracle",
          "type": "address"
        },
        {
          "internalType": "string",
          "name": "betDescription",
          "type": "string"
        }
      ],
      "stateMutability": "view",
      "type": "function"
    },
    {
      "inputs": [],
      "name": "getBalance",
      "outputs": [
        {
          "internalType": "uint256",
          "name": "",
          "type": "uint256"
        }
      ],
      "stateMutability": "view",
      "type": "function"
    },
    {
      "inputs": [
        {
          "internalType": "uint256",
          "name": "betID",
          "type": "uint256"
        }
      ],
      "name": "getBetDescription",
      "outputs": [
        {
          "internalType": "string",
          "name": "",
          "type": "string"
        }
      ],
      "stateMutability": "view",
      "type": "function"
    },
    {
      "inputs": [],
      "name": "getBetInd",
      "outputs": [
        {
          "internalType": "uint256",
          "name": "",
          "type": "uint256"
        }
      ],
      "stateMutability": "view",
      "type": "function"
    },
    {
      "inputs": [
        {
          "internalType": "uint256",
          "name": "betID",
          "type": "uint256"
        }
      ],
      "name": "getBetOutcome",
      "outputs": [
        {
          "internalType": "string",
          "name": "description",
          "type": "string"
        },
        {
          "internalType": "string",
          "name": "outcome",
          "type": "string"
        },
        {
          "internalType": "string",
          "name": "originatorKey",
          "type": "string"
        },
        {
          "internalType": "uint256",
          "name": "originatorStatus",
          "type": "uint256"
        },
        {
          "internalType": "string",
          "name": "takerKey",
          "type": "string"
        },
        {
          "internalType": "uint256",
          "name": "takerStatus",
          "type": "uint256"
        }
      ],
      "stateMutability": "view",
      "type": "function"
    },
    {
      "inputs": [
        {
          "internalType": "uint256",
          "name": "betID",
          "type": "uint256"
        }
      ],
      "name": "getGameStatus",
      "outputs": [
        {
          "internalType": "uint256",
          "name": "",
          "type": "uint256"
        }
      ],
      "stateMutability": "view",
      "type": "function"
    },
    {
      "inputs": [
        {
          "internalType": "uint256",
          "name": "betID",
          "type": "uint256"
        }
      ],
      "name": "getOracleAddress",
      "outputs": [
        {
          "internalType": "address",
          "name": "",
          "type": "address"
        }
      ],
      "stateMutability": "view",
      "type": "function"
    },
    {
      "inputs": [
        {
          "internalType": "uint256",
          "name": "betID",
          "type": "uint256"
        }
      ],
      "name": "getOriginatorAddress",
      "outputs": [
        {
          "internalType": "address",
          "name": "",
          "type": "address"
        }
      ],
      "stateMutability": "view",
      "type": "function"
    },
    {
      "inputs": [
        {
          "internalType": "uint256",
          "name": "betID",
          "type": "uint256"
        }
      ],
      "name": "getOriginatorBetAmount",
      "outputs": [
        {
          "internalType": "uint256",
          "name": "",
          "type": "uint256"
        }
      ],
      "stateMutability": "view",
      "type": "function"
    },
    {
      "inputs": [
        {
          "internalType": "uint256",
          "name": "betID",
          "type": "uint256"
        }
      ],
      "name": "getOriginatorGuess",
      "outputs": [
        {
          "internalType": "uint256",
          "name": "",
          "type": "uint256"
        }
      ],
      "stateMutability": "view",
      "type": "function"
    },
    {
      "inputs": [
        {
          "internalType": "uint256",
          "name": "betID",
          "type": "uint256"
        }
      ],
      "name": "getOriginatorStatus",
      "outputs": [
        {
          "internalType": "uint256",
          "name": "",
          "type": "uint256"
        }
      ],
      "stateMutability": "view",
      "type": "function"
    },
    {
      "inputs": [
        {
          "internalType": "uint256",
          "name": "betID",
          "type": "uint256"
        }
      ],
      "name": "getOutcome",
      "outputs": [
        {
          "internalType": "uint256",
          "name": "",
          "type": "uint256"
        }
      ],
      "stateMutability": "view",
      "type": "function"
    },
    {
      "inputs": [
        {
          "internalType": "uint256",
          "name": "betID",
          "type": "uint256"
        }
      ],
      "name": "getTakerAddress",
      "outputs": [
        {
          "internalType": "address",
          "name": "",
          "type": "address"
        }
      ],
      "stateMutability": "view",
      "type": "function"
    },
    {
      "inputs": [
        {
          "internalType": "uint256",
          "name": "betID",
          "type": "uint256"
        }
      ],
      "name": "getTakerBetAmount",
      "outputs": [
        {
          "internalType": "uint256",
          "name": "",
          "type": "uint256"
        }
      ],
      "stateMutability": "view",
      "type": "function"
    },
    {
      "inputs": [
        {
          "internalType": "uint256",
          "name": "betID",
          "type": "uint256"
        }
      ],
      "name": "getTakerGuess",
      "outputs": [
        {
          "internalType": "uint256",
          "name": "",
          "type": "uint256"
        }
      ],
      "stateMutability": "view",
      "type": "function"
    },
    {
      "inputs": [
        {
          "internalType": "uint256",
          "name": "betID",
          "type": "uint256"
        }
      ],
      "name": "getTakerStatus",
      "outputs": [
        {
          "internalType": "uint256",
          "name": "",
          "type": "uint256"
        }
      ],
      "stateMutability": "view",
      "type": "function"
    },
    {
      "inputs": [
        {
          "internalType": "uint256",
          "name": "betID",
          "type": "uint256"
        }
      ],
      "name": "nullBet",
      "outputs": [],
      "stateMutability": "payable",
      "type": "function"
    },
    {
      "inputs": [],
      "name": "owner",
      "outputs": [
        {
          "internalType": "address",
          "name": "",
          "type": "address"
        }
      ],
      "stateMutability": "view",
      "type": "function"
    },
    {
      "inputs": [
        {
          "internalType": "uint256",
          "name": "betID",
          "type": "uint256"
        }
      ],
      "name": "payout",
      "outputs": [],
      "stateMutability": "payable",
      "type": "function"
    },
    {
      "inputs": [
        {
          "internalType": "uint256",
          "name": "betID",
          "type": "uint256"
        },
        {
          "internalType": "uint256",
          "name": "_outcome",
          "type": "uint256"
        }
      ],
      "name": "setBetOutcome",
      "outputs": [],
      "stateMutability": "nonpayable",
      "type": "function"
    },
    {
      "inputs": [
        {
          "internalType": "uint256",
          "name": "betID",
          "type": "uint256"
        }
      ],
      "name": "takeBet",
      "outputs": [],
      "stateMutability": "payable",
      "type": "function"
    }
  ],
  "bytecode": "0x6080604052600060015534801561001557600080fd5b50336000806101000a81548173ffffffffffffffffffffffffffffffffffffffff021916908373ffffffffffffffffffffffffffffffffffffffff1602179055506138d1806100656000396000f3fe6080604052600436106101665760003560e01c80638a8263e2116100d1578063e0f6ff431161008a578063e59286d811610064578063e59286d8146105aa578063ef4be800146105d5578063f373ae3114610612578063f67feccc1461062e57610166565b8063e0f6ff4314610526578063e115234314610551578063e1feadfd1461056d57610166565b80638a8263e21461040c5780638da5cb5b146104285780639217c43814610453578063aa8e732614610490578063c511a074146104cd578063cd579335146104e957610166565b80633145b496116101235780633145b496146102b057806348f1b5b9146102ed5780634af8e1a41461032a5780636d4f45421461035557806371c57ca21461039257806381d335fe146103cf57610166565b80630f1bf4541461016b578063117a5b90146101a857806312065fe0146101ea57806318aea0c8146102155780631a421ad214610257578063294ba4b414610273575b600080fd5b34801561017757600080fd5b50610192600480360381019061018d9190612933565b610657565b60405161019f919061296f565b60405180910390f35b3480156101b457600080fd5b506101cf60048036038101906101ca9190612933565b610688565b6040516101e196959493929190612ae0565b60405180910390f35b3480156101f657600080fd5b506101ff610870565b60405161020c919061296f565b60405180910390f35b34801561022157600080fd5b5061023c60048036038101906102379190612933565b61087d565b60405161024e96959493929190612b4b565b60405180910390f35b610271600480360381019061026c9190612933565b610ba0565b005b34801561027f57600080fd5b5061029a60048036038101906102959190612933565b610d5b565b6040516102a79190612bc8565b60405180910390f35b3480156102bc57600080fd5b506102d760048036038101906102d29190612933565b610e14565b6040516102e49190612bea565b60405180910390f35b3480156102f957600080fd5b50610314600480360381019061030f9190612933565b610e68565b604051610321919061296f565b60405180910390f35b34801561033657600080fd5b5061033f610e9c565b60405161034c919061296f565b60405180910390f35b34801561036157600080fd5b5061037c60048036038101906103779190612933565b610ea6565b604051610389919061296f565b60405180910390f35b34801561039e57600080fd5b506103b960048036038101906103b49190612933565b610eda565b6040516103c6919061296f565b60405180910390f35b3480156103db57600080fd5b506103f660048036038101906103f19190612933565b610f0e565b604051610403919061296f565b60405180910390f35b61042660048036038101906104219190612d66565b610f42565b005b34801561043457600080fd5b5061043d611467565b60405161044a9190612bea565b60405180910390f35b34801561045f57600080fd5b5061047a60048036038101906104759190612933565b61148b565b6040516104879190612bea565b60405180910390f35b34801561049c57600080fd5b506104b760048036038101906104b29190612933565b6114dc565b6040516104c49190612bea565b60405180910390f35b6104e760048036038101906104e29190612933565b611530565b005b3480156104f557600080fd5b50610510600480360381019061050b9190612933565b61177f565b60405161051d919061296f565b60405180910390f35b34801561053257600080fd5b5061053b6117b0565b604051610548919061296f565b60405180910390f35b61056b60048036038101906105669190612933565b6117b7565b005b34801561057957600080fd5b50610594600480360381019061058f9190612933565b611dbb565b6040516105a1919061296f565b60405180910390f35b3480156105b657600080fd5b506105bf611def565b6040516105cc919061296f565b60405180910390f35b3480156105e157600080fd5b506105fc60048036038101906105f79190612933565b611df5565b604051610609919061296f565b60405180910390f35b61062c60048036038101906106279190612933565b611e29565b005b34801561063a57600080fd5b5061065560048036038101906106509190612dfd565b6120f9565b005b6000610663823361251b565b60028262010000811061067957610678612e3d565b5b600c0201600101549050919050565b60028162010000811061069a57600080fd5b600c020160009150905080600001549080600101549080600201604051806080016040529081600082015481526020016001820160009054906101000a900473ffffffffffffffffffffffffffffffffffffffff1673ffffffffffffffffffffffffffffffffffffffff1673ffffffffffffffffffffffffffffffffffffffff168152602001600282015481526020016003820154815250509080600601604051806080016040529081600082015481526020016001820160009054906101000a900473ffffffffffffffffffffffffffffffffffffffff1673ffffffffffffffffffffffffffffffffffffffff1673ffffffffffffffffffffffffffffffffffffffff168152602001600282015481526020016003820154815250509080600a0160009054906101000a900473ffffffffffffffffffffffffffffffffffffffff169080600b0180546107ed90612e9b565b80601f016020809104026020016040519081016040528092919081815260200182805461081990612e9b565b80156108665780601f1061083b57610100808354040283529160200191610866565b820191906000526020600020905b81548152906001019060200180831161084957829003601f168201915b5050505050905086565b6000804790508091505090565b606080606060006060600060016002886201000081106108a05761089f612e3d565b5b600c0201600201600201541480156108d75750600280886201000081106108ca576108c9612e3d565b5b600c020160060160020154145b15610919576040518060400160405280601e81526020017f426574206f726967696e61746f722068617320776f6e2074686520626574000081525095506109e4565b600280886201000081106109305761092f612e3d565b5b600c0201600201600201541480156109685750600160028862010000811061095b5761095a612e3d565b5b600c020160060160020154145b156109aa576040518060400160405280601981526020017f4265742074616b65722068617320776f6e20746865206265740000000000000081525095506109e3565b6040518060400160405280601381526020017f556e6b6e6f776e20426574204f7574636f6d650000000000000000000000000081525095505b5b60016002886201000081106109fc576109fb612e3d565b5b600c02016000015403610a46576040518060400160405280600481526020017f54727565000000000000000000000000000000000000000000000000000000008152509450610ae1565b60028088620100008110610a5d57610a5c612e3d565b5b600c02016000015403610aa7576040518060400160405280600581526020017f46616c73650000000000000000000000000000000000000000000000000000008152509450610ae0565b6040518060400160405280601481526020017f556e6b6e6f776e2047616d65204f7574636f6d6500000000000000000000000081525094505b5b6040518060400160405280600a81526020017f6f726967696e61746f72000000000000000000000000000000000000000000008152509350600287620100008110610b2f57610b2e612e3d565b5b600c02016002016002015492506040518060400160405280600581526020017f74616b65720000000000000000000000000000000000000000000000000000008152509150600287620100008110610b8a57610b89612e3d565b5b600c020160060160020154905091939550919395565b600281620100008110610bb657610bb5612e3d565b5b600c020160060160010160009054906101000a900473ffffffffffffffffffffffffffffffffffffffff1673ffffffffffffffffffffffffffffffffffffffff163373ffffffffffffffffffffffffffffffffffffffff1614610c4e576040517f08c379a0000000000000000000000000000000000000000000000000000000008152600401610c4590612f18565b60405180910390fd5b610c8e6040518060400160405280601781526020017f44656e79696e67204265745b25735d2066726f6d20257300000000000000000081525082336126b6565b6000600282620100008110610ca657610ca5612e3d565b5b600c020160010181905550600281620100008110610cc757610cc6612e3d565b5b600c020160020160010160009054906101000a900473ffffffffffffffffffffffffffffffffffffffff1673ffffffffffffffffffffffffffffffffffffffff166108fc600283620100008110610d2157610d20612e3d565b5b600c0201600201600301549081150290604051600060405180830381858888f19350505050158015610d57573d6000803e3d6000fd5b5050565b6060610d67823361251b565b600282620100008110610d7d57610d7c612e3d565b5b600c0201600b018054610d8f90612e9b565b80601f0160208091040260200160405190810160405280929190818152602001828054610dbb90612e9b565b8015610e085780601f10610ddd57610100808354040283529160200191610e08565b820191906000526020600020905b815481529060010190602001808311610deb57829003601f168201915b50505050509050919050565b6000610e20823361251b565b600282620100008110610e3657610e35612e3d565b5b600c020160060160010160009054906101000a900473ffffffffffffffffffffffffffffffffffffffff169050919050565b6000610e74823361251b565b600282620100008110610e8a57610e89612e3d565b5b600c0201600201600001549050919050565b6000600154905090565b6000610eb2823361251b565b600282620100008110610ec857610ec7612e3d565b5b600c0201600601600301549050919050565b6000610ee6823361251b565b600282620100008110610efc57610efb612e3d565b5b600c0201600601600201549050919050565b6000610f1a823361251b565b600282620100008110610f3057610f2f612e3d565b5b600c0201600601600001549050919050565b6001851480610f515750600285145b610f90576040517f08c379a0000000000000000000000000000000000000000000000000000000008152600401610f8790612f84565b60405180910390fd5b610fb660405180606001604052806027815260200161379f602791396001543334612755565b6000600182610fc59190612fd3565b90506040518060c00160405280600081526020016001815260200160405180608001604052808981526020013373ffffffffffffffffffffffffffffffffffffffff168152602001600381526020013481525081526020016040518060800160405280600081526020018673ffffffffffffffffffffffffffffffffffffffff168152602001600481526020018481525081526020018673ffffffffffffffffffffffffffffffffffffffff16815260200185815250620c000260008201518160000155602082015181600101556040820151816002016000820151816000015560208201518160010160006101000a81548173ffffffffffffffffffffffffffffffffffffffff021916908373ffffffffffffffffffffffffffffffffffffffff160217905550604082015181600201556060820151816003015550506060820151816006016000820151816000015560208201518160010160006101000a81548173ffffffffffffffffffffffffffffffffffffffff021916908373ffffffffffffffffffffffffffffffffffffffff16021790555060408201518160020155606082015181600301555050608082015181600a0160006101000a81548173ffffffffffffffffffffffffffffffffffffffff021916908373ffffffffffffffffffffffffffffffffffffffff16021790555060a082015181600b0190816111cf91906131c1565b5090505060405180608001604052808781526020013373ffffffffffffffffffffffffffffffffffffffff1681526020016003815260200134815250620c00026002016000820151816000015560208201518160010160006101000a81548173ffffffffffffffffffffffffffffffffffffffff021916908373ffffffffffffffffffffffffffffffffffffffff1602179055506040820151816002015560608201518160030155905050620c0002600260015462010000811061129657611295612e3d565b5b600c020160008201548160000155600182015481600101556002820181600201600082015481600001556001820160009054906101000a900473ffffffffffffffffffffffffffffffffffffffff168160010160006101000a81548173ffffffffffffffffffffffffffffffffffffffff021916908373ffffffffffffffffffffffffffffffffffffffff160217905550600282015481600201556003820154816003015550506006820181600601600082015481600001556001820160009054906101000a900473ffffffffffffffffffffffffffffffffffffffff168160010160006101000a81548173ffffffffffffffffffffffffffffffffffffffff021916908373ffffffffffffffffffffffffffffffffffffffff16021790555060028201548160020155600382015481600301555050600a820160009054906101000a900473ffffffffffffffffffffffffffffffffffffffff1681600a0160006101000a81548173ffffffffffffffffffffffffffffffffffffffff021916908373ffffffffffffffffffffffffffffffffffffffff160217905550600b820181600b01908161144791906132a9565b50905050600180546114599190613391565b600181905550505050505050565b60008054906101000a900473ffffffffffffffffffffffffffffffffffffffff1681565b6000611497823361251b565b6002826201000081106114ad576114ac612e3d565b5b600c0201600a0160009054906101000a900473ffffffffffffffffffffffffffffffffffffffff169050919050565b60006114e8823361251b565b6002826201000081106114fe576114fd612e3d565b5b600c020160020160010160009054906101000a900473ffffffffffffffffffffffffffffffffffffffff169050919050565b60028162010000811061154657611545612e3d565b5b600c0201600601600301543414611592576040517f08c379a000000000000000000000000000000000000000000000000000000000815260040161158990613411565b60405180910390fd5b6002816201000081106115a8576115a7612e3d565b5b600c020160060160010160009054906101000a900473ffffffffffffffffffffffffffffffffffffffff1673ffffffffffffffffffffffffffffffffffffffff163373ffffffffffffffffffffffffffffffffffffffff1614611640576040517f08c379a000000000000000000000000000000000000000000000000000000000815260040161163790612f18565b60405180910390fd5b6116646040518060600160405280602581526020016137c660259139823334612755565b6002808262010000811061167b5761167a612e3d565b5b600c020160010181905550600060016002836201000081106116a05761169f612e3d565b5b600c020160020160000154036116b957600290506116be565b600190505b60405180608001604052808281526020013373ffffffffffffffffffffffffffffffffffffffff168152602001600381526020013481525060028362010000811061170c5761170b612e3d565b5b600c02016006016000820151816000015560208201518160010160006101000a81548173ffffffffffffffffffffffffffffffffffffffff021916908373ffffffffffffffffffffffffffffffffffffffff16021790555060408201518160020155606082015181600301559050505050565b600061178b823361251b565b6002826201000081106117a1576117a0612e3d565b5b600c0201600001549050919050565b6201000081565b6002816201000081106117cd576117cc612e3d565b5b600c0201600a0160009054906101000a900473ffffffffffffffffffffffffffffffffffffffff1673ffffffffffffffffffffffffffffffffffffffff163373ffffffffffffffffffffffffffffffffffffffff1614611862576040517f08c379a00000000000000000000000000000000000000000000000000000000081526004016118599061347d565b60405180910390fd5b600360028262010000811061187a57611879612e3d565b5b600c020160010154146118c2576040517f08c379a00000000000000000000000000000000000000000000000000000000081526004016118b9906134e9565b60405180910390fd5b60016002826201000081106118da576118d9612e3d565b5b600c02016002016002015403611a2b57600060028262010000811061190257611901612e3d565b5b600c02016006016003015460028362010000811061192357611922612e3d565b5b600c0201600201600301546119389190613391565b90506002826201000081106119505761194f612e3d565b5b600c020160020160010160009054906101000a900473ffffffffffffffffffffffffffffffffffffffff1673ffffffffffffffffffffffffffffffffffffffff166108fc829081150290604051600060405180830381858888f193505050501580156119c0573d6000803e3d6000fd5b50611a256040518060600160405280603281526020016138106032913983836002866201000081106119f5576119f4612e3d565b5b600c020160020160010160009054906101000a900473ffffffffffffffffffffffffffffffffffffffff166127f7565b50611db8565b6001600282620100008110611a4357611a42612e3d565b5b600c02016006016002015403611b94576000600282620100008110611a6b57611a6a612e3d565b5b600c020160060160030154600283620100008110611a8c57611a8b612e3d565b5b600c020160020160030154611aa19190613391565b9050600282620100008110611ab957611ab8612e3d565b5b600c020160060160010160009054906101000a900473ffffffffffffffffffffffffffffffffffffffff1673ffffffffffffffffffffffffffffffffffffffff166108fc829081150290604051600060405180830381858888f19350505050158015611b29573d6000803e3d6000fd5b50611b8e6040518060600160405280602d8152602001613842602d91398383600286620100008110611b5e57611b5d612e3d565b5b600c020160060160010160009054906101000a900473ffffffffffffffffffffffffffffffffffffffff166127f7565b50611db7565b6000600282620100008110611bac57611bab612e3d565b5b600c02016002016003015490506000600283620100008110611bd157611bd0612e3d565b5b600c0201600601600301549050600283620100008110611bf457611bf3612e3d565b5b600c020160020160010160009054906101000a900473ffffffffffffffffffffffffffffffffffffffff1673ffffffffffffffffffffffffffffffffffffffff166108fc839081150290604051600060405180830381858888f19350505050158015611c64573d6000803e3d6000fd5b50600283620100008110611c7b57611c7a612e3d565b5b600c020160060160010160009054906101000a900473ffffffffffffffffffffffffffffffffffffffff1673ffffffffffffffffffffffffffffffffffffffff166108fc829081150290604051600060405180830381858888f19350505050158015611ceb573d6000803e3d6000fd5b50611d506040518060600160405280602d815260200161386f602d91398484600287620100008110611d2057611d1f612e3d565b5b600c020160060160010160009054906101000a900473ffffffffffffffffffffffffffffffffffffffff166127f7565b611db46040518060600160405280602d815260200161386f602d91398483600287620100008110611d8457611d83612e3d565b5b600c020160060160010160009054906101000a900473ffffffffffffffffffffffffffffffffffffffff166127f7565b50505b5b50565b6000611dc7823361251b565b600282620100008110611ddd57611ddc612e3d565b5b600c0201600201600301549050919050565b60015481565b6000611e01823361251b565b600282620100008110611e1757611e16612e3d565b5b600c0201600201600201549050919050565b600281620100008110611e3f57611e3e612e3d565b5b600c0201600a0160009054906101000a900473ffffffffffffffffffffffffffffffffffffffff1673ffffffffffffffffffffffffffffffffffffffff163373ffffffffffffffffffffffffffffffffffffffff1614611ed4576040517f08c379a0000000000000000000000000000000000000000000000000000000008152600401611ecb9061347d565b60405180910390fd5b6000600282620100008110611eec57611eeb612e3d565b5b600c02016002016003015490506000600283620100008110611f1157611f10612e3d565b5b600c0201600601600301549050600283620100008110611f3457611f33612e3d565b5b600c020160020160010160009054906101000a900473ffffffffffffffffffffffffffffffffffffffff1673ffffffffffffffffffffffffffffffffffffffff166108fc839081150290604051600060405180830381858888f19350505050158015611fa4573d6000803e3d6000fd5b50600283620100008110611fbb57611fba612e3d565b5b600c020160060160010160009054906101000a900473ffffffffffffffffffffffffffffffffffffffff1673ffffffffffffffffffffffffffffffffffffffff166108fc829081150290604051600060405180830381858888f1935050505015801561202b573d6000803e3d6000fd5b506120906040518060600160405280602d815260200161386f602d913984846002876201000081106120605761205f612e3d565b5b600c020160060160010160009054906101000a900473ffffffffffffffffffffffffffffffffffffffff166127f7565b6120f46040518060600160405280602d815260200161386f602d913984836002876201000081106120c4576120c3612e3d565b5b600c020160060160010160009054906101000a900473ffffffffffffffffffffffffffffffffffffffff166127f7565b505050565b60028262010000811061210f5761210e612e3d565b5b600c0201600a0160009054906101000a900473ffffffffffffffffffffffffffffffffffffffff1673ffffffffffffffffffffffffffffffffffffffff163373ffffffffffffffffffffffffffffffffffffffff16146121a4576040517f08c379a000000000000000000000000000000000000000000000000000000000815260040161219b9061347d565b60405180910390fd5b60036002836201000081106121bc576121bb612e3d565b5b600c0201600201600201541480156121f4575060036002836201000081106121e7576121e6612e3d565b5b600c020160060160020154145b612233576040517f08c379a000000000000000000000000000000000000000000000000000000000815260040161222a9061357b565b60405180910390fd5b60018114806122425750600281145b612281576040517f08c379a0000000000000000000000000000000000000000000000000000000008152600401612278906135e7565b60405180910390fd5b6122a56040518060600160405280602581526020016137eb602591398383336127f7565b806002836201000081106122bc576122bb612e3d565b5b600c02016000018190555060036002836201000081106122df576122de612e3d565b5b600c020160010181905550600282620100008110612300576122ff612e3d565b5b600c02016000015460028362010000811061231e5761231d612e3d565b5b600c020160020160000154148015612373575060028262010000811061234757612346612e3d565b5b600c02016000015460028362010000811061236557612364612e3d565b5b600c02016006016000015414155b156123c85760016002836201000081106123905761238f612e3d565b5b600c020160020160020181905550600280836201000081106123b5576123b4612e3d565b5b600c020160060160020181905550612517565b6002826201000081106123de576123dd612e3d565b5b600c0201600001546002836201000081106123fc576123fb612e3d565b5b600c02016002016000015414158015612451575060028262010000811061242657612425612e3d565b5b600c02016000015460028362010000811061244457612443612e3d565b5b600c020160060160000154145b156124a6576002808362010000811061246d5761246c612e3d565b5b600c020160020160020181905550600160028362010000811061249357612492612e3d565b5b600c020160060160020181905550612516565b60056002836201000081106124be576124bd612e3d565b5b600c02016002016002018190555060056002836201000081106124e4576124e3612e3d565b5b600c020160060160020181905550600560028362010000811061250a57612509612e3d565b5b600c0201600101819055505b5b5050565b60028262010000811061253157612530612e3d565b5b600c020160020160010160009054906101000a900473ffffffffffffffffffffffffffffffffffffffff1673ffffffffffffffffffffffffffffffffffffffff168173ffffffffffffffffffffffffffffffffffffffff16148061260057506002826201000081106125a6576125a5612e3d565b5b600c020160060160010160009054906101000a900473ffffffffffffffffffffffffffffffffffffffff1673ffffffffffffffffffffffffffffffffffffffff168173ffffffffffffffffffffffffffffffffffffffff16145b80612673575060028262010000811061261c5761261b612e3d565b5b600c0201600a0160009054906101000a900473ffffffffffffffffffffffffffffffffffffffff1673ffffffffffffffffffffffffffffffffffffffff168173ffffffffffffffffffffffffffffffffffffffff16145b6126b2576040517f08c379a00000000000000000000000000000000000000000000000000000000081526004016126a990613679565b60405180910390fd5b5050565b6127508383836040516024016126ce93929190613699565b6040516020818303038152906040527f1c7ec448000000000000000000000000000000000000000000000000000000007bffffffffffffffffffffffffffffffffffffffffffffffffffffffff19166020820180517bffffffffffffffffffffffffffffffffffffffffffffffffffffffff8381831617835250505050612899565b505050565b6127f18484848460405160240161276f94939291906136d7565b6040516020818303038152906040527f4f04fdc6000000000000000000000000000000000000000000000000000000007bffffffffffffffffffffffffffffffffffffffffffffffffffffffff19166020820180517bffffffffffffffffffffffffffffffffffffffffffffffffffffffff8381831617835250505050612899565b50505050565b612893848484846040516024016128119493929190613723565b6040516020818303038152906040527fe21de278000000000000000000000000000000000000000000000000000000007bffffffffffffffffffffffffffffffffffffffffffffffffffffffff19166020820180517bffffffffffffffffffffffffffffffffffffffffffffffffffffffff8381831617835250505050612899565b50505050565b6128b0816128a86128b36128d4565b63ffffffff16565b50565b60006a636f6e736f6c652e6c6f679050600080835160208501845afa505050565b6128df819050919050565b6128e761376f565b565b6000604051905090565b600080fd5b600080fd5b6000819050919050565b612910816128fd565b811461291b57600080fd5b50565b60008135905061292d81612907565b92915050565b600060208284031215612949576129486128f3565b5b60006129578482850161291e565b91505092915050565b612969816128fd565b82525050565b60006020820190506129846000830184612960565b92915050565b612993816128fd565b82525050565b600073ffffffffffffffffffffffffffffffffffffffff82169050919050565b60006129c482612999565b9050919050565b6129d4816129b9565b82525050565b6080820160008201516129f0600085018261298a565b506020820151612a0360208501826129cb565b506040820151612a16604085018261298a565b506060820151612a29606085018261298a565b50505050565b6000612a3a82612999565b9050919050565b612a4a81612a2f565b82525050565b600081519050919050565b600082825260208201905092915050565b60005b83811015612a8a578082015181840152602081019050612a6f565b60008484015250505050565b6000601f19601f8301169050919050565b6000612ab282612a50565b612abc8185612a5b565b9350612acc818560208601612a6c565b612ad581612a96565b840191505092915050565b600061018082019050612af66000830189612960565b612b036020830188612960565b612b1060408301876129da565b612b1d60c08301866129da565b612b2b610140830185612a41565b818103610160830152612b3e8184612aa7565b9050979650505050505050565b600060c0820190508181036000830152612b658189612aa7565b90508181036020830152612b798188612aa7565b90508181036040830152612b8d8187612aa7565b9050612b9c6060830186612960565b8181036080830152612bae8185612aa7565b9050612bbd60a0830184612960565b979650505050505050565b60006020820190508181036000830152612be28184612aa7565b905092915050565b6000602082019050612bff6000830184612a41565b92915050565b612c0e81612a2f565b8114612c1957600080fd5b50565b600081359050612c2b81612c05565b92915050565b600080fd5b600080fd5b7f4e487b7100000000000000000000000000000000000000000000000000000000600052604160045260246000fd5b612c7382612a96565b810181811067ffffffffffffffff82111715612c9257612c91612c3b565b5b80604052505050565b6000612ca56128e9565b9050612cb18282612c6a565b919050565b600067ffffffffffffffff821115612cd157612cd0612c3b565b5b612cda82612a96565b9050602081019050919050565b82818337600083830152505050565b6000612d09612d0484612cb6565b612c9b565b905082815260208101848484011115612d2557612d24612c36565b5b612d30848285612ce7565b509392505050565b600082601f830112612d4d57612d4c612c31565b5b8135612d5d848260208601612cf6565b91505092915050565b600080600080600060a08688031215612d8257612d816128f3565b5b6000612d908882890161291e565b9550506020612da188828901612c1c565b945050604086013567ffffffffffffffff811115612dc257612dc16128f8565b5b612dce88828901612d38565b9350506060612ddf88828901612c1c565b9250506080612df08882890161291e565b9150509295509295909350565b60008060408385031215612e1457612e136128f3565b5b6000612e228582860161291e565b9250506020612e338582860161291e565b9150509250929050565b7f4e487b7100000000000000000000000000000000000000000000000000000000600052603260045260246000fd5b7f4e487b7100000000000000000000000000000000000000000000000000000000600052602260045260246000fd5b60006002820490506001821680612eb357607f821691505b602082108103612ec657612ec5612e6c565b5b50919050565b7f74616b6572206164647265737320697320696e636f7272656374000000000000600082015250565b6000612f02601a83612a5b565b9150612f0d82612ecc565b602082019050919050565b60006020820190508181036000830152612f3181612ef5565b9050919050565b7f6775657373206973206e6f742073657420746f2031206f722032000000000000600082015250565b6000612f6e601a83612a5b565b9150612f7982612f38565b602082019050919050565b60006020820190508181036000830152612f9d81612f61565b9050919050565b7f4e487b7100000000000000000000000000000000000000000000000000000000600052601160045260246000fd5b6000612fde826128fd565b9150612fe9836128fd565b9250828202612ff7816128fd565b9150828204841483151761300e5761300d612fa4565b5b5092915050565b60008190508160005260206000209050919050565b60006020601f8301049050919050565b600082821b905092915050565b6000600883026130777fffffffffffffffffffffffffffffffffffffffffffffffffffffffffffffffff8261303a565b613081868361303a565b95508019841693508086168417925050509392505050565b6000819050919050565b60006130be6130b96130b4846128fd565b613099565b6128fd565b9050919050565b6000819050919050565b6130d8836130a3565b6130ec6130e4826130c5565b848454613047565b825550505050565b600090565b6131016130f4565b61310c8184846130cf565b505050565b5b81811015613130576131256000826130f9565b600181019050613112565b5050565b601f8211156131755761314681613015565b61314f8461302a565b8101602085101561315e578190505b61317261316a8561302a565b830182613111565b50505b505050565b600082821c905092915050565b60006131986000198460080261317a565b1980831691505092915050565b60006131b18383613187565b9150826002028217905092915050565b6131ca82612a50565b67ffffffffffffffff8111156131e3576131e2612c3b565b5b6131ed8254612e9b565b6131f8828285613134565b600060209050601f83116001811461322b5760008415613219578287015190505b61322385826131a5565b86555061328b565b601f19841661323986613015565b60005b828110156132615784890151825560018201915060208501945060208101905061323c565b8683101561327e578489015161327a601f891682613187565b8355505b6001600288020188555050505b505050505050565b6000815490506132a281612e9b565b9050919050565b8181036132b757505061338f565b6132c082613293565b67ffffffffffffffff8111156132d9576132d8612c3b565b5b6132e38254612e9b565b6132ee828285613134565b6000601f83116001811461331d576000841561330b578287015490505b61331585826131a5565b865550613388565b601f19841661332b87613015565b965061333686613015565b60005b8281101561335e57848901548255600182019150600185019450602081019050613339565b8683101561337b5784890154613377601f891682613187565b8355505b6001600288020188555050505b5050505050505b565b600061339c826128fd565b91506133a7836128fd565b92508282019050808211156133bf576133be612fa4565b5b92915050565b7f62657420616d6f756e7420697320696e636f7272656374000000000000000000600082015250565b60006133fb601783612a5b565b9150613406826133c5565b602082019050919050565b6000602082019050818103600083015261342a816133ee565b9050919050565b7f6f7261636c65206164647265737320697320696e636f72726563740000000000600082015250565b6000613467601b83612a5b565b915061347282613431565b602082019050919050565b600060208201905081810360008301526134968161345a565b9050919050565b7f67616d6520737461747573206973206e6f7420636f6d706c6574650000000000600082015250565b60006134d3601b83612a5b565b91506134de8261349d565b602082019050919050565b60006020820190508181036000830152613502816134c6565b9050919050565b7f42657474657242657420737461747573206f6620656974686572206f7269676960008201527f6e61746f72206f722074616b6572206973206e6f742070656e64696e67000000602082015250565b6000613565603d83612a5b565b915061357082613509565b604082019050919050565b6000602082019050818103600083015261359481613558565b9050919050565b7f6f7574636f6d65206d7573742062652031206f72203200000000000000000000600082015250565b60006135d1601683612a5b565b91506135dc8261359b565b602082019050919050565b60006020820190508181036000830152613600816135c4565b9050919050565b7f6d757374206265206f726967696e61746f722c2074616b65722c206f72206f7260008201527f61636c6520616464726573730000000000000000000000000000000000000000602082015250565b6000613663602c83612a5b565b915061366e82613607565b604082019050919050565b6000602082019050818103600083015261369281613656565b9050919050565b600060608201905081810360008301526136b38186612aa7565b90506136c26020830185612960565b6136cf6040830184612a41565b949350505050565b600060808201905081810360008301526136f18187612aa7565b90506137006020830186612960565b61370d6040830185612a41565b61371a6060830184612960565b95945050505050565b6000608082019050818103600083015261373d8187612aa7565b905061374c6020830186612960565b6137596040830185612960565b6137666060830184612a41565b95945050505050565b7f4e487b7100000000000000000000000000000000000000000000000000000000600052605160045260246000fdfe4372656174696e67204265745b25735d2066726f6d202573207769746820616d6f756e7420257354616b696e67204265745b25735d2066726f6d202573207769746820616d6f756e7420257353657474696e67204265745b25735d206f7574636f6d6520746f2025732066726f6d2025734f726967696e61746f7220576f6e3a20506179696e67206f7574204265745b25735d20616d6f756e7420257320746f20257354616b657220576f6e3a20506179696e67206f7574204265745b25735d20616d6f756e7420257320746f2025734e6f6f6e6520576f6e3a20506179696e67206f7574204265745b25735d20616d6f756e7420257320746f202573a26469706673582212209ec3d92f1716ce502b6c2f02d0c6036a9e2eba51060ccfc3a3178aace09bb6a164736f6c63430008180033",
  "linkReferences": {},
  "deployedLinkReferences": {}
}